:020000040000fa
:080000000002040000000000f2
:020000040000fa
:040008007803000079
:020000040000fa
:04000c007803000075
:020000040000fa
:040010007803000071
:020000040000fa
:04001400780300006d
:020000040000fa
:040018007803000069
:020000040000fa
:04001c007803000065
:020000040000fa
:040020007803000061
:020000040000fa
:04002400780300005d
:020000040000fa
:040028007803000059
:020000040000fa
:04002c007803000055
:020000040000fa
:040030007803000051
:020000040000fa
:04003400e4020000e2
:020000040000fa
:040038007803000049
:020000040000fa
:04003c007803000045
:020000040000fa
:040040007803000041
:020000040000fa
:04004400780300003d
:020000040000fa
:040048007803000039
:020000040000fa
:04004c007803000035
:020000040000fa
:040050007803000031
:020000040000fa
:040054004e03000057
:020000040000fa
:040058007803000029
:020000040000fa
:04005c007803000025
:020000040000fa
:040060007803000021
:020000040000fa
:04006400780300001d
:020000040000fa
:040068007803000019
:020000040000fa
:04006c007803000015
:020000040000fa
:040070007803000011
:020000040000fa
:04007400780300000d
:020000040000fa
:040078007803000009
:020000040000fa
:04007c007803000005
:020000040000fa
:040080007803000001
:020000040000fa
:0400840078030000fd
:020000040000fa
:0400880078030000f9
:020000040000fa
:04008c0078030000f5
:020000040000fa
:0400900078030000f1
:020000040000fa
:0400940078030000ed
:020000040000fa
:0400980078030000e9
:020000040000fa
:04009c0078030000e5
:020000040000fa
:0400a00078030000e1
:020000040000fa
:0400a40078030000dd
:020000040000fa
:0400a80078030000d9
:020000040000fa
:0400ac0078030000d5
:020000040000fa
:0400b00078030000d1
:020000040000fa
:0400b40078030000cd
:020000040000fa
:0400b80078030000c9
:020000040000fa
:0400bc0078030000c5
:020000040000fa
:0400c00078030000c1
:020000040000fa
:0400c40078030000bd
:020000040000fa
:0400c80078030000b9
:020000040000fa
:0400cc0078030000b5
:020000040000fa
:0400d00078030000b1
:020000040000fa
:0400d40078030000ad
:020000040000fa
:0400d80078030000a9
:020000040000fa
:0400dc0078030000a5
:020000040000fa
:0400e00078030000a1
:020000040000fa
:0400e400780300009d
:020000040000fa
:0400e8007803000099
:020000040000fa
:0400ec007803000095
:020000040000fa
:0400f0007803000091
:020000040000fa
:0400f400780300008d
:020000040000fa
:0400f8007803000089
:020000040000fa
:0400fc007803000085
:020000040000fa
:040100007803000080
:020000040000fa
:04010400780300007c
:020000040000fa
:040108007803000078
:020000040000fa
:04010c007803000074
:020000040000fa
:040110007803000070
:020000040000fa
:04011400780300006c
:020000040000fa
:040118007803000068
:020000040000fa
:04011c007803000064
:020000040000fa
:040120007803000060
:020000040000fa
:04012400780300005c
:020000040000fa
:040128007803000058
:020000040000fa
:04012c007803000054
:020000040000fa
:040130007803000050
:020000040000fa
:04013400780300004c
:020000040000fa
:040138007803000048
:020000040000fa
:04013c007803000044
:020000040000fa
:040140007803000040
:020000040000fa
:04014400780300003c
:020000040000fa
:040208007803000077
:020000040000fa
:04020c007803000073
:020000040000fa
:04021000780300006f
:020000040000fa
:04021400780300006b
:020000040000fa
:040218007803000067
:020000040000fa
:04021c007803000063
:020000040000fa
:04022000780300005f
:020000040000fa
:04022400780300005b
:020000040000fa
:040228007803000057
:020000040000fa
:04022c007803000053
:020000040000fa
:04023000780300004f
:020000040000fa
:04023400780300004b
:020000040000fa
:040238007803000047
:020000040000fa
:04023c007803000043
:020000040000fa
:04024000780300003f
:020000040000fa
:04024400780300003b
:020000040000fa
:040248007803000037
:020000040000fa
:04024c007803000033
:020000040000fa
:04025000780300002f
:020000040000fa
:04025400780300002b
:020000040000fa
:040258007803000027
:020000040000fa
:04025c007803000023
:020000040000fa
:04026000780300001f
:020000040000fa
:04026400780300001b
:020000040000fa
:040268007803000017
:020000040000fa
:04026c007803000013
:020000040000fa
:04027000780300000f
:020000040000fa
:04027400780300000b
:020000040000fa
:040278007803000007
:020000040000fa
:04027c007803000003
:020000040000fa
:0402800078030000ff
:020000040000fa
:0402840078030000fb
:020000040000fa
:0402880078030000f7
:020000040000fa
:04028c0078030000f3
:020000040000fa
:0402900078030000ef
:020000040000fa
:0402940078030000eb
:020000040000fa
:0402980078030000e7
:020000040000fa
:04029c0078030000e3
:020000040000fa
:0402a00078030000df
:020000040000fa
:0402a40078030000db
:020000040000fa
:0402a80078030000d7
:020000040000fa
:0402ac0078030000d3
:020000040000fa
:0402b00078030000cf
:020000040000fa
:0402b40078030000cb
:020000040000fa
:0402b80078030000c7
:020000040000fa
:0402bc0078030000c3
:020000040000fa
:0402c00078030000bf
:020000040000fa
:0402c40078030000bb
:020000040000fa
:0402c80078030000b7
:020000040000fa
:0402cc0078030000b3
:020000040000fa
:0402d00078030000af
:020000040000fa
:0402d40078030000ab
:020000040000fa
:0402d80078030000a7
:020000040000fa
:0402dc0078030000a3
:020000040000fa
:0402e000780300009f
:020000040000fa
:0402e400780300009b
:020000040000fa
:0402e8007803000097
:020000040000fa
:0402ec007803000093
:020000040000fa
:0402f000780300008f
:020000040000fa
:0402f400780300008b
:020000040000fa
:0402f8007803000087
:020000040000fa
:0402fc007803000083
:020000040000fa
:04030000780300007e
:020000040000fa
:04030400780300007a
:020000040000fa
:040308007803000076
:020000040000fa
:04030c007803000072
:020000040000fa
:04031000780300006e
:020000040000fa
:04031400780300006a
:020000040000fa
:040318007803000066
:020000040000fa
:04031c007803000062
:020000040000fa
:04032000780300005e
:020000040000fa
:04032400780300005a
:020000040000fa
:040328007803000056
:020000040000fa
:04032c007803000052
:020000040000fa
:04033000780300004e
:020000040000fa
:04033400780300004a
:020000040000fa
:040338007803000046
:020000040000fa
:04033c007803000042
:020000040000fa
:04034000780300003e
:020000040000fa
:04034400780300003a
:020000040000fa
:100400004f9820000eff27000e018800000000001a
:10041000000020000000e000020032000001200087
:10042000200288000e00070080ba22000100200090
:10043000810f700001003200220007000000200040
:100440000000e00002003200000002000000000096
:10045000da2c0200000000000040da000000fe007c
:100460004440a900600620000000e00003003200c4
:1004700000002000a00188004440a8000000060001
:10048000f03fb1000180b10006003500ee03090025
:1004900000000000403fb1000180b100fbff3d00c3
:1004a0001000b000203fb0000200350000800900bd
:1004b00000000000000006008a1f78008b1f7800f3
:1004c0000000060091018800800478000000eb0025
:1004d0001a003700e284440032a0b4009905ba0043
:1004e000e284440032a0b4009906ba00e2844400d9
:1004f00032a0b4000006eb00476fde00fd07b2003b
:10050000636ce10003003a00ebff07000000eb0022
:100510000a003700606ce10004003a00005deb0067
:100520008b05e900fdff3e00040037006168e10033
:10053000010032000086eb000b00070019c7ba006b
:100540001905ba000e04e00003003a000a00e000ba
:10055000e0ff3a0000000600fe07b2009e0188009e
:100560008a047800f5ff3700395dba008b05e90091
:100570000c003200295dba008b05e900080032004a
:100580000c00e00003003a00e284440032a0b40012
:10059000f5ff370019ddba008b05e900faff3a00d4
:1005a0008904e800e184440032a0b40000000600a1
:1005b0007c03040000000000680c04000000000040
:1005c00000000400000000003600f800809fbe001c
:1005d000829fbe00849fbe00869fbe003400f8004c
:1005e00000002000a00188000000fa008460a9003b
:1005f00004c8bf00e14f500003003a0030c8bf00fc
:100600000040e80030e8b70030408000e20f5000c2
:1006100015003a000000eb00741007008000eb00aa
:10062000620a07000001be000000eb00271107006e
:10063000600a0700000078000040880010002000d9
:100640006a1007008000eb00580a07000001be0096
:10065000100020001d110700560a07000000780056
:10066000104088000628ef00304080000000e800bd
:100670003040880010c0b30004e8b7000080fa00e2
:100680003400f9004f03be004f02be004f01be0010
:100690004f00be003600f9000040060000a0fe003a
:1006a0003400f800881f780008002000a8018800a6
:1006b0004f0478008560a9002202ab0009003200d7
:1006c00030118000f34f500003003a0010c0b30017
:1006d00056e8b70003003700f14f500001003a0020
:1006e0005668ef003400f9000080fe00004006006c
:1006f0000040da000000fe00889fbe000004780081
:1007000001007800820478008801780009017800ef
:100710001100200049000700890f5000010032003d
:100720000004eb00080078004f04be000000060043
:100730000000fa00e88157004fb997002188200097
:10074000c0372000910007000080fa00000006007a
:10075000889fbe008a1f7800000478000800e0002f
:100760000d003a00088d2000700544008004eb0065
:10077000580078000000e00004003200f4ff070099
:100780000000e00001003d008084eb008a0f54006f
:10079000f7ff3a0025003700000022001800600033
:1007a0008004eb0021003200a80490000f00370005
:1007b00009015100384090000000fb0089007800da
:1007c000890807000000e00007003c0028009000b6
:1007d0004004980060049800500c98001890a00005
:1007e0008084eb00110037008084440048019000b1
:1007f000828f5400eeff39002800900040049800da
:100800009800780002c020000281600001003a00d8
:100810003800900001e8a300020032006004980054
:1008200001003700500c98008004eb0009007800ac
:100830004f0578004f04be0000000600889fbe00f0
:100840008a9fbe008c9fbe008e1f78000006780035
:100850000104780002007800830478000881b90060
:10086000020778000200e000420032000800e000c9
:100870004100320082057800c900900069009000b4
:10088000808f50000400390009007800f100070053
:100890000000e00029003500004020001900600041
:1008a0000a0032000b017800a10020000c00780043
:1008b0002f010700800678000d00e00006003200de
:1008c000610516000a854600040037000b05780014
:1008d0008006eb00010037000b057800490090000e
:1008e000e9009000808050008a8f500002003100a3
:1008f000010578008006eb000a0178008c00780082
:10090000250107008a855500490090000a00400033
:10091000c00498000d00e0000400320009007800d7
:100920008bff07000000e00004003a000b00e0002d
:10093000020032000a064600cfff37000080200088
:1009400019006000020032000900780080ff0700f3
:1009500000c0200019006000020032004900900031
:10096000e00498008b055700110009008885d80025
:10097000010037000000eb004f0778004f06be0073
:100980004f05be004f04be00000006006200fa00e2
:10099000889fbe008a1f78000005780081047800d7
:1009a000020478008300780080f92f000f004000d7
:1009b000000107009a979f00a9979f000000eb0095
:1009c000b09f9f001885fb008a04fb000a05ea001f
:1009d0004f55de0050022000808f54000d00320081
:1009e000e10f55000b003a000a01780088007800fa
:1009f0002f9097009f91970003000100a0979f0000
:100a00000000e0008e0032003f9897000000e800f0
:100a1000b09f9f000a04440050022000808f5400c1
:100a2000040032000900e000e6ff3a003f9897001a
:100a3000840037000000eb00909f9f00809f9f0084
:100a4000f0979f00e0979f00d0979f00c0979f006e
:100a5000070037000197200001005000000040000f
:100a60004196200061007800df9897000100700037
:100a7000d09f9f00880478000904780038457800ea
:100a80008a00fb0000972000cc0007000000e00077
:100a9000f0ff3a00a1c2b300814f55000e003a00aa
:100aa000cf8897000180e900c08f9f001000780078
:100ab000c09f9f000000e00005003d000000ea002c
:100ac000c09f9f005f9897000020a000d09f9f00cc
:100ad0000904e8000f003700c09f9f000000eb00f2
:100ae00005003700f2ff2700820f5000020032009d
:100af0006a01b90002804000090478008804780087
:100b0000b900fb000103b100e98f5000f5ff36008a
:100b1000c09f9f00e0c2b300984f10000200320057
:100b20000080eb0019003700a0c2b300d84f1000be
:100b300007003a00cf8897000180e900c08f9f002e
:100b400010007800a09f9f000804e8001000370004
:100b50000000eb00a09f9f00880078000500370090
:100b6000f3ff2700830f5000020032006a02b90031
:100b70000400410001047800880078003101fb0086
:100b80000203b100e90f5100f5ff3600a09f9f005e
:100b9000984478008900fb00c0952000870007007a
:100ba0000000e000020032000804e8000100370005
:100bb0008044eb00c97f9f0080c6b30080cf540003
:100bc00004003a0098cf14000a003a006640500032
:100bd00006003700c0c6b30080cf540005003a00bd
:100be00098cf140003003a0065404000c07f9f008a
:100bf0000804e8001801fb00e3fb2f008f8141008f
:100c000081f92f008f804000a0f92f000f004000d5
:100c1000760007000000e00009003a00e1fb2f0029
:100c20008f804000a0f92f000f004000c201070094
:100c30000000e000020035000804e80061ff370012
:100c40000080eb004f0578004f04be000080fa00e2
:100c500000000600889fbe008a1f7800000478000c
:100c6000c8009000680190000000eb00828f5000e7
:100c70003c003900180078002200290002016000c1
:100c8000e20f510007003200012024000000e000c4
:100c900001003d0001202000008c70000080eb006e
:100ca000300037000200260002006000820f500072
:100cb00009003a0038009000808f5000060039008b
:100cc00008007800a2fe0700800078000080eb009a
:100cd0000100e00023003a001805780000c0200061
:100ce0000000650018003a00a8049000600220008f
:100cf00008004000808f540013003a0000202000bc
:100d00007c020700200498000000e00005003a0083
:100d100029049800490498008904e80039049800df
:100d2000080037000a60a0000a0c78004004980010
:100d3000012020008080400031049800400c980081
:100d4000500c98009702070028009000500498006b
:100d5000380090006004980000002600180c700015
:100d60000000eb004f0578004f04be0000000600b5
:100d700003003700b0cf1000050032000201e90087
:100d8000800178000200e000faff3a000000050050
:100d900003007800000006008001780002003700a0
:100da000b15978000201e9000200e000fcff3a00be
:100db000000006000108780000000600020037006d
:100dc0000304e00006003200000178000200780011
:100dd000b041780081cf5100f9ff3a00010037009f
:100de0000001eb000200780000000600889fbe00b2
:100df0008a1f780000047800824478000305780098
:100e000070c6b30080cf54001a003c0000c0e90057
:100e100080cf5400cd003d006d40500080cf540085
:100e2000770032000b003c007140500080cf54002e
:100e300035013c0000c0e90080cf5400c3003d00f4
:100e400050c2b30080cf54002c0132007c404000df
:100e50000500370030c6b30080cf54001a003200be
:100e60001e003c0000c0e90080cf540026013a007b
:100e7000b6003700f0c6b30080cf540060003200e7
:100e800007003c006640500080cf54001300320041
:100e90006540400080cf54001b013a00d400370069
:100ea00050c7b30080cf540055003200634040006b
:100eb00080cf54005200320002c7b30082cf5400ea
:100ec00011013a00ff0037001181e9008208780023
:100ed00078009000127578001101370028609000aa
:100ee000c2c6b300824f500007003a0011017800db
:100ef00064005100800878001000be004f89de00b9
:100f0000820178001400370012c7b300824f5000ee
:100f100003003a0011027800680052000500370013
:100f2000a2c6b300824f500006003a00910278003a
:100f300068805200800878005001be004000be006a
:100f4000050037001180e900800878001000780063
:100f5000cf80de006109b900009cbe000294be0093
:100f60002862900085c6b300854f52000d00320004
:100f700025c6b300854f520004003a000000fb0074
:100f8000cf80de006109b9000800370045c7b30013
:100f9000854f520003003200e6c24200854f5200e6
:100fa00004003a00cf80de006109b900009cbe0059
:100fb0000294be003802be002803be0078009000f4
:100fc000d1c2b300e00f5200e08f5a00e00f5b0087
:100fd000e08f5b0008003500881090000118a30026
:100fe00002003200b1c2b300030037000108a300c1
:100ff0005100320001c2b300017578004c00370087
:1010000028609000c2c6b300824f500008003a002a
:101010001103780064005300800878001002be00bd
:101020006033b8000400be000601be0014003700a3
:1010300012c7b300824f500003003a0091027800bb
:101040006880520005003700a2c6b300824f5000ee
:1010500006003a0011037800680053008008780009
:101060005001be004000be00050037001180e900bd
:1010700080087800100078008000eb006011b80054
:10108000009cbe000294be002862900085c6b3009a
:10109000854f52000d00320025c6b300854f520027
:1010a00004003a000080fb008000eb006011b800f3
:1010b0000800370045c7b300854f520003003200d7
:1010c000e6c24200854f520004003a008000eb0067
:1010d0006011b800009cbe000294be000810900091
:1010e0000038a300140032003800be002801be0002
:1010f000e00f5000e08f5800e00f5900e08f5900da
:101100000d00320080c7b30080cf540003003200ce
:1011100080c5b30080cf540007003a0078009000eb
:1011200001c3b300017578000000e800097578007c
:101130000000e80070049800780090000005450069
:101140006a0498008940780069003700286190009f
:10115000c0c4b300804f510006003a0091037800ec
:1011600068805300800878005001be004000be0037
:1011700005003700110178006400510080087800f4
:101180001000be0015090700009cbe000294be00be
:10119000b8009000780090000100e00002003d00df
:1011a000d1c2b30008003700881090000118a300d6
:1011b00002003200b1c2b300030037000108a300ef
:1011c0000400320001c2b300017578000000e8009d
:1011d0007004980078009000000545006a049800ab
:1011e0008900fb0008007800c40107004e003700aa
:1011f00028619000c3c6b3001180e900834f5100fd
:10120000240032000a003c00e4c15100834f510029
:101210002700320083c1e800834f510015003200df
:1012200020c6b300804f510020003a000a0037006a
:1012300043c7b300834f51001d003200e6c1410097
:10124000834f51001a00320010c7b300804f510085
:1012500016003a00060037001180e9008008780087
:1012600010007800485c9000084878002e00370095
:101270001180e9008008780010007800680a90006a
:10128000cfa2de00612bb9000498be000690be001c
:101290002500370080087800100078006809900069
:1012a000cf91de000288be001f0037001180e900e8
:1012b0008008780010007800680c9000080878001a
:1012c000190037001181e9008208780012027800c5
:1012d000cfa2de00612bb900049cbe000694be00c4
:1012e000f8009000010545006a04980080407800ed
:1012f00008007800a90207000b0037007800900072
:101300000975780006003700780090000005450058
:101310000904e00001003a0059c2b300094d780009
:101320000000e800700498000000eb004f05780012
:101330004f04be00000006000400fa00889fbe00b3
:101340008a9fbe008c1f7800000478000106780098
:10135000f80d9000780090008085550008089000f6
:101360008085550018089000808555002808900059
:101370008085550038089000808555004808900009
:10138000808555000002220090bf9f0000032300cb
:10139000a0bf9f00081090000028a30015003a008d
:1013a0000b00e000130034000b0578008a0478007d
:1013b000e20f55000100360029002000c80190000e
:1013c00009017800ee8057005800900003000100ea
:1013d000500498000000e0008c0032006808900083
:1013e00009004000600c9800090555004240a90022
:1013f000eeff3c00780190000200e0000c00340099
:10140000c80190008c007800580090000300010093
:10141000500498008080eb000000e0007c00320067
:10142000e80890007800900000804000600c980070
:10143000880c90000900e0001100340009057800d4
:10144000e28f5400010036002a002000c8019000fd
:101450000a017800ec80570058009000030001005a
:10146000500498000000e000680032006808900016
:101470000a004000600c98008a845400edff370099
:10148000180990000200e0000c003400c801900030
:10149000e8009000580090000300010050049800fc
:1014a0008080eb000000e00059003200e808900066
:1014b0001808900000804000600c9800a80c900074
:1014c0000900e0001100340009057800e28f5400a3
:1014d000010036002a002000c80190000a017800af
:1014e000ec80570058009000030001005004980061
:1014f0000000e00045003200680890000a0040004b
:10150000600c98008a845400edff37003809900081
:101510000200e0000e003400e8009000180890007f
:1015200080804000c8019000580090000300010036
:10153000500498008080eb000000e000340032008e
:10154000e80890003808900000804000600c980087
:10155000c80c90000900e000110034000905780073
:10156000e28f5400010036002a002000c8019000dc
:101570000a017800ec805700580090000300010039
:10158000500498000000e00020003200680890003d
:101590000a004000600c98008a845400edff370078
:1015a000081090008000eb000028a3001800320013
:1015b0000b00e000160034008b0478000905780069
:1015c000e28f5400010036002a002000c80190007c
:1015d0000a017800ee8057005800900003000100d7
:1015e000500498000000e0000800320068089000f5
:1015f0000a004000600c98008a8454004240a90010
:10160000eeff3c008000eb00010037008080eb0023
:10161000010078004f0678004f05be004f04be0061
:101620000080fa0000000600889fbe0000047800d9
:10163000b14b80000100e0000200320001007800a0
:101640000d003700c14b8000809720000400370058
:10165000910f5400250036000180e80091009000b1
:101660000100e000faff3a0010003700920f54002a
:101670001e0036000280e800100178000200e00041
:10168000faff3a0011017800c14b800080972000da
:1016900004003700910f5400140036000180e80068
:1016a00091009000828f5000faff3a00d94b8000e1
:1016b000888f540001003100880478000900780008
:1016c000e50207000000e00004003a00888f5400a3
:1016d000050032008904d100f5ff370009187800b1
:1016e000e7020700d2ff37000000eb004f04be0006
:1016f00000000600881f7800630440000800a10075
:101700008000eb00800f540021003600e30f5400ee
:1017100001003e004800200008007800c2ff0700da
:101720008000eb000000e00019003200900078001b
:101730009101780064815100880f5100030031004d
:10174000110190000208780007003700088140006e
:1017500002087800910190001301980010017800b0
:101760001109140088087800100178000000eb00cf
:101770000200e00004003200920190000300e0004b
:10178000010032000280e800b04b88008180e80050
:10179000010078004f0478000000060080c6200099
:1017a000e9023700881f7800c89720001804e0007d
:1017b00003003a00f9ff070020c0b300004c780096
:1017c0004f04780000000600889fbe0000047800e7
:1017d00008007800defb0700800478000004200089
:1017e000180060000200320028009000a4020700e8
:1017f0000000eb0020049800384090000004e00056
:10180000050035000000fb00bb0407000000e000fd
:10181000010032008084eb00181090000000e0000e
:1018200008003200bf0407000000e00001003200a1
:101830008084eb0018109000910207000000eb007c
:101840001014980000082000180060000f003200fb
:10185000018d20000000eb00d10f140005003a00bc
:1018600000004000218d2000008040000008eb00b7
:10187000030037000000e800e80f5000f6ff3a00d0
:10188000080078007e0207000e003700000c780088
:1018900000c0eb00304498006002200008004000c7
:1018a000200498004004980050049800400c9800d0
:1018b00060049800500c9800700498007600440072
:1018c000000c9800090078004f04be0000000600dc
:1018d000889fbe00288e2000f00454004800780045
:1018e0000000e00001003200b7ff0700890f54003c
:1018f000faff3a004f04be00000006002f04b000bb
:10190000889fbe008a9fbe008c9fbe008e1f7800fd
:101910000007780081f79f003e04be002e05be0040
:101920005e0890000000e00002003d006000200022
:10193000500f98008e00780020fb2f000f00400011
:101940008d020700e20f50000a003a00300020002c
:10195000100f9800b1c9b3000ff09700814040000c
:10196000608e2000e1cf50000d003e00208e200050
:101970000b0037000000e0000f00340030002000b2
:10198000100f9800b1c9b3000ff1970081404100da
:10199000e08e2000e1cf500001003e00a08e20002c
:1019a000ee009000b0487800b068780010407800f1
:1019b00090409800f30037000000e00005003a0076
:1019c00022fb2f000f014100001978008001eb007d
:1019d000e70037006022b8006033b8000800be009e
:1019e0000a01be001c0707000000e00001003d00e6
:1019f0000bf0a200705927009f9897000088b9004b
:101a0000026a28001300200018070700640650002f
:101a10009c9f9f0013003b0063061600c0ff2f0031
:101a2000000666008c01ea00939f9f002d8f200026
:101a30000800be000a01be00070037000c08a30022
:101a4000030032003d02be002d03be00a8090700be
:101a50000c86d100e88646000c00e000f7ff3c0051
:101a6000180037000c00e00018003200c0ff2f0003
:101a7000000666009c9f9f002d8f20006000b8002c
:101a80000200200003ff2300070037000c08a3001a
:101a9000030032003d02be002d03be009409070082
:101aa0000c86d100e88646000c00e000f7ff3c0001
:101ab0000002be000203be000800be000a01be0014
:101ac000f90607000004be000205be00de08900013
:101ad00060c6b3000ff29700804f5200040032003e
:101ae0006000200062c4b300824f520002003a003e
:101af0009f9a97006a80420081004000f1b79f00e2
:101b000001037800f30f5300020034003701200076
:101b1000f7b79f0000c3b300c0779f0056fb2f00ac
:101b20000f0343000e007800a0b79f00060778005f
:101b30003d0037000800be000a01be003407070060
:101b40000006be007fb1970068015100f2b79f0008
:101b50004240a9000c003400590707000002be00f3
:101b60000203be000800be000a01be0057070700be
:101b70006022b80046782d00771924005c09070020
:101b80000004be000205be00e80047008e002000f1
:101b90000802be000a03be00b4b79f00c5b79f008d
:101ba000d6b79f00e7b79f000c01be000104780084
:101bb0000c003700a400200005002000c0fd2f000d
:101bc0000f004000160207006fa89700ffa89700bb
:101bd0000fb197009fb1970005c3b30005644100a2
:101be0000001be00e00f5100e08f590003003400f7
:101bf0000e07e900e10f4700eeff3a008800780089
:101c00003fb49700cfb497005fb59700efb597004a
:101c10000200370000c3b300806078000e07e900bf
:101c2000fcff3b00688740007fb397000600e000a0
:101c3000070034006022b8006033b8000800be001e
:101c40000a01be00230707000000e000b9ff3c00c6
:101c50000e0378002fb7970051fb2f008f804000b4
:101c6000010353009f9b970067804300909f9f0054
:101c7000020037000603e9000000e90001017800d6
:101c80008200780003c3b300b1cf1100f9ff320026
:101c9000909f9f00de09900061c6b3000ff297008d
:101ca000814f52000300320061c4b300814f5200e3
:101cb00002003a000000e8000a003700100020008f
:101cc00051c6b3008ff2970081cf52000500320059
:101cd0000540780050c4b2000080fb000000e9001d
:101ce0004f00de0083014000868f51000100340068
:101cf000860178000300e0001d00350000c3b3003a
:101d0000868f510006003d0062c2790069404000a4
:101d100041c3b300814f520001003c0069405000b4
:101d20008300e90081004100010037008401780050
:101d30000302e90001037800a142780080cf52003d
:101d4000faff320091c3b300814f500001003a0006
:101d5000054be8000400e00005003d000201e90039
:101d60008301e8001f9b97000603e800969f9f00f1
:101d70008ff397008700fb001f9a97000e007800f2
:101d8000bc0107004f0778004f06be004f05be009c
:101d90004f04be002f04b10000000600fc8747007e
:101da000889fbe008a9fbe008c9fbe008e1f780059
:101db0000006780080c5b30080cf50000a003200d2
:101dc0007740400080cf50000a0032006940400058
:101dd00080cf50000b003200b094200080bf9f00e5
:101de000ae0020000a003700a293200082bf9f00af
:101df00006003700b394200083bf9f008e002000b0
:101e000003003700b494200084bf9f000e0120001f
:101e10003c02be002c03be000605be000404be004a
:101e200040c6b30080cf5000030032006540400040
:101e300080cf50000b003a00e00f5200e08f5a00b4
:101e4000e00f5b00e08f5b0006003d006000b80023
:101e50006011b8000404500085845800060559003c
:101e600087855900e80f5700040032004000200029
:101e7000f00f570038003a00010037003000200012
:101e8000e00f5400e08f5c00e00f5d00e08f5d002c
:101e900004003a00dc0890008d0120000100e00001
:101ea000060032008e00e900888060008fba97003b
:101eb000e5c07800f1ef9f007d01200080007800f0
:101ec0008100e900050033008b05d1000a85d300ad
:101ed0008984d3000884d300f9ff3700089ebe0030
:101ee0000a96be00120037008d06e9008e00e90058
:101ef000848060000fb99700e2c1780082fd2f0056
:101f00000f01410003f17e00800078008100e900ac
:101f1000050033008783d1000683d3008582d30078
:101f20000482d300f9ff3700049ebe000696be006f
:101f30003c02be002c03be00e00f5200e08f5a00ae
:101f4000e00f5b00e08f5b008b0034000d00e000d1
:101f5000e5ff3c00880037002c60900081c6b3008c
:101f6000814f50000b00320006003c000004e000ee
:101f700008003200e6c05000814f50004e003a0089
:101f800004003700c1c6b300814f50004a003a0038
:101f9000210037000800e00004003a005c089000cf
:101fa0008d0120000000e000060032001100090051
:101fb0000e84d8000fb99700e2c07800f1ef9f00bf
:101fc0007d012000110009000e84d8000a003700ae
:101fd000110009000e04d8008d06e9000e81b90039
:101fe000020454008fb8970061417c0081fd2f00ee
:101ff0008f80400082f07e00000478000800e0003e
:10200000020032000d00e000f1ff3c00cfc4de0012
:10201000614db90025003700e00f5400e08f5c00ef
:1020200004003a005c0890008d0120000000e000f0
:10203000070032006171b9000800be002a060700df
:102040008fb99700e3417800f3ef9f007d012000f6
:102050006171b9000800be00260607000b003700ba
:102060006171b9000800be00800507008d06e90017
:1020700000f1b900020454000fba9700e4427c005a
:1020800084fd2f000f02420005f27e000004be0016
:10209000e00f5000e08f5800020032000d00e00019
:1020a000efff3c004fcdde008a057800089ebe00a1
:1020b0000a96be0030003700e00f5400e08f5c004d
:1020c000e00f5d00e08f5d0004003a005c089000c6
:1020d0008d0120000000e000090032006172b900ab
:1020e000612bb9000800be000a01be00800607008f
:1020f0000fba970064427800f4ef9f007d01200042
:102100006172b900612bb9000800be000a01be006f
:10211000700607000d0037006172b900612bb9002d
:102120000800be000a01be00750607008d06e90022
:1021300000f2b900040454008fba970065427c0095
:1021400085fd2f008f82420084f27e00009ebe003b
:102150000296be003c04be002c05be00e00f5400f9
:10216000e08f5c00e00f5d00e08f5d000200340056
:102170000d00e000e8ff3c00e80f570010003a00b7
:102180000c1090000038a3000d003200f78f5600ad
:1021900006003e0085fd2f008f824200e5c07e00d4
:1021a00000c3b30080cf5000050032008d06e90067
:1021b00002c3b30081fd2f008f80400082f07e00bb
:1021c00078811600120e98006c00900083fd2f009d
:1021d0008f8141008d804100effa07001c089000bc
:1021e000dc089000810f500006003d000080500088
:1021f000000e98000c1090000040a10000169800fe
:102200000f0037000100e0000d003d008c10900031
:10221000f4806000f08f500009003a007c099000c3
:10222000fc009000810051000c0990008280500059
:10223000008050004240a90001003400000e9800c8
:102240004f0778004f06be004f05be004f04be008a
:10225000cf01b10000000600800078000000eb0014
:102260000100e0000500340001007800360207009c
:10227000e10f400001003a000000eb000000060002
:102280000000e0002f003200c0017800e38f510011
:102290002c0036000308a3002a003a00c14b80003e
:1022a0000100e00002003200810f50000400310004
:1022b00011009800c04b880016003700820078009b
:1022c000110190000200e00002003200800f510076
:1022d000faff39001102780084824000850f500017
:1022e00018003900808f520003003a008308420032
:1022f00001007800070037000200e0000300320010
:1023000083014000830f51000e0039001200980035
:1023100090009800900090000100e0000900320059
:1023200010014000828f500006003a0062972000a2
:102330000009eb00100178001108410091009000a5
:102340001100980000000600010020000100e000dc
:1023500008003200010080000100e00005003200aa
:102360008100e900010088008180400002008000b7
:1023700000b1780000000600889fbe0000047800cd
:10238000e68440001900d0004500de00f27f200006
:10239000820f500010003a00000ceb009904780006
:1023a0006f816400200020001b003a002101900092
:1023b0000200e00018003a00110190000200e00065
:1023c00015003a00100020001100e0001200320059
:1023d00020002000100037000000e00004003a0058
:1023e00001007800270107000000e00008003c0021
:1023f000f20028001901610001fe2300810c710028
:1024000021c02f00010c40000080eb0002003700cb
:10241000000ceb000000eb004f04be0000000600c3
:10242000881f78008a9fbe008c9fbe000004780041
:102430000205be000406be000401be000a00be0084
:102440008a040700008cbe000c01be002d060700a8
:102450000005550081855d002a0498003b04980022
:10246000080078004f06be004f05be004f047800fc
:1024700000000600f0874700889fbe008a9fbe00cc
:102480008c9fbe008e1f7800000478008144780085
:102490000205be00040678000b00e00002003c00cc
:1024a0001b002000ea97200060c6b30080cf5400d4
:1024b0000e00320060c4b30080cf54000b00320025
:1024c00070c6b30080cf54000300320070c4b30064
:1024d00080cf540081003a00e40f46007f003500b1
:1024e00058089000800f56007c003d000c06e80064
:1024f00060c6b30080cf54001000320060c4b30047
:1025000080cf54000d003200081090000038a30066
:1025100004003a0058089000808f550001003d00eb
:102520005b0c9800580890000c005000500c98006c
:1025300002003b000000eb00500c980018089000cf
:10254000e80090000c00e00026003c0002c3b3004d
:10255000827078000000e800100c9800d808900005
:102560000100e00003003c00881090000138a30047
:1025700005003200e8009000e2c2b30082707800eb
:102580000000e800100c9800580890008c00ea0049
:10259000810f500001003d000006ea008c00ea00b7
:1025a000210c9800000646005c0c98008b0f56002a
:1025b000010034000b0678003c0c9800e800900005
:1025c00018089000008040000c0178008a00780014
:1025d000f1f90700580890000c0650004c0c9800c8
:1025e000900037008c8f550018003d00008040009f
:1025f0000b0178008a007800e7f9070018089000be
:1026000000804500100c98008b0556002b0c98009c
:10261000d80890000100e00003003c008810900002
:102620000138a30006003200e8009000e2c2b300c7
:1026300082707800380890000000e800300c9800a4
:1026400058089000400c9800760037000080400049
:102650000c0178008a007800cff907001808900074
:1026600000004600100c98008c855500d80890009a
:102670000100e00003003c00881090000138a30036
:1026800005003200e8009000e2c2b30082707800da
:102690000000e800100c980058089000808f55004a
:1026a0000100340080057800e800900018089000d0
:1026b000008040008c0045000b017800b6f907004f
:1026c000180890000b004000100c9800580890006b
:1026d0008b0550002b0c9800520037001808900012
:1026e000e80090009a7078000000e800100c980054
:1026f000d80890000100e00003003c008810900022
:102700000138a30005003200e8009000e2c2b300e7
:10271000827078000000e800100c980058089000c3
:102720000000e000100034008b05e900808f5500a8
:102730000100340080057800e8009000180890003f
:10274000008040008a00e8000b01780092f9070041
:10275000180890000b004000100c980058089000da
:102760008b0550002b0c9800e80090001808900092
:1027700000804000095878000007e8000c00e000e5
:1027800004003500b1c2b300014878008e0478001f
:1027900004003700d1c2b300014878008e047800ed
:1027a0000c06ea007d8557008006eb000900370023
:1027b000a20020008c007800728057007d00070086
:1027c0007fb097008fb89700016d78000006780001
:1027d0008d06e8000c00e000f5ff3c000d00e00075
:1027e00009003a008e04780000c3b300805c7800d2
:1027f000050037008d06e900fc80570061c07e00af
:1028000002c3b300825c40000d00e000f9ff3c0011
:10281000e800900018089000008040008084540078
:10282000390c98000810900074006000f00f500000
:102830000e003a0098089000780090000080400058
:10284000a808900001004000b80890000100400076
:10285000c808900001004000f8089000810f500067
:1028600002003d0000805000000c98004f077800e7
:102870004f06be004f05be004f04be000f01b10061
:1028800000000600e6004000110178000500280065
:10289000850261006f016100820878000200320049
:1028a0001200200011003700a0019000120020004b
:1028b0000300e0000d003a00900190000300e000ea
:1028c0000a003a001000e00008003a003600370025
:1028d000640340009608780080017800530b78006c
:1028e0009009780004087800700151001102780006
:1028f0000400e000f6ff32001300370064024000dd
:10290000140378004f33de00838141008308730095
:1029100080017800d3037800cf3bde0014037800f9
:1029200006034300068a7300130278000402420083
:10293000100378004f33de008609720090017800a2
:10294000038841000201e90091017800ef8f5100f6
:10295000eaff36001000370080017800530378004a
:102960004f33dd001002d100040873006402400000
:1029700094037800cf3bdd001303d10086897300f8
:10298000110378004f33dd009401d100030a730076
:102990009108d1000201e80091017800ff8f5100f9
:1029a000edff3e00ef886100918872000200780020
:1029b0000000060080027800010378001100090081
:1029c0000203d80080017800830a78000299b900d8
:1029d00002015300920298000500780000000600f2
:1029e00000c0da00000006000a00fa00e20f500002
:1029f00034003e00004c8000e10f50000300320024
:102a0000e20f500011003a000c00370003222000b2
:102a10000300e00001003a000040da002002e2007a
:102a2000020035002822ef0021e2a8002342ab007b
:102a30000d003a002342a8000b00370003232000ba
:102a40000300e00001003a000040da003002e2003a
:102a5000020035003822ef0031e2a8003342ab001b
:102a600001003a003342a800820178000b003700d1
:102a70003102fb00e10f500004003a002322ab00ba
:102a8000feff3a0024118800030037003322ab0018
:102a9000feff3a00a41188008301e9000300e00072
:102aa000f3ff3a00e10f500003003a002302ab00ad
:102ab000feff32000b0037003302ab00feff320096
:102ac0000800370033002000b3bf9f00c0bf9f0045
:102ad000d1bf9f00e2bf9f006a805700c0ff070080
:102ae0006fb99700020078000080fa00000006002d
:102af00000c0da00000006000a00fa001100200001
:102b0000b1bf9f00c0bf9f006a805700f8ff070059
:102b10004fb897000080fa000000060000c0da00fd
:102b2000000006000a00fa0051002000b1bf9f001b
:102b3000c0bf9f006a805700f8ff07005fb897008a
:102b40000080fa0000000600889fbe008004780024
:102b5000104c80000000e00004003a000e00070066
:102b60000084eb000000e00008003500184c8000f5
:102b70000900e000050032000900440006000700db
:102b80000000e00001003d000084eb000800780038
:102b90004f04be0000000600800078000100e00045
:102ba00003003a0000002000104c880000000500df
:102bb0000080eb0002002000828f500002003e00e7
:102bc000114c88000000eb0000000600889fbe004a
:102bd0008a9fbe008c1f7800190107002001330076
:102be00003866c006450e100240032006420e100a0
:102bf000270032006150e100220032006120e10034
:102c0000210032008b854200eb07b1000134b8008f
:102c1000003ab8000804420089844a00013ab8002a
:102c20000030b8008880400009014a0004003300e9
:102c30000000400081804800020149008b05e90046
:102c4000c909dd008301700001003200130020007b
:102c5000c814de004814dd004709de001200b2008f
:102c6000c808de00088470000d01070001f0a10013
:102c70000cf0a70001f0a000020137006120e10084
:102c8000040132000801be000200be00f7ff370059
:102c90006150e100fcff3a00fe003700889fbe0053
:102ca0008a9fbe008c1f7800e5000700ec0033000f
:102cb00003866c006450e1002e0032006420e100c5
:102cc000330032006150e1002f0032006120e1004a
:102cd0003100320085855500eb07b0000900200067
:102ce00008042000050037000804440089844c00d3
:102cf0000a0031000603430087834b0000015300a4
:102d000081815b00f8ff33000203be000800a000d1
:102d10000804440089844c00f6ff3900c639dd0000
:102d20008301730001003200130020008904d100e8
:102d30000884d3000998a300050032000800a7000a
:102d40000300a0008904d1000884d3008b05e800ab
:102d50008904d1000884d3000001eb000281d20075
:102d6000cf00070001f0a1000cf0a70001f0a000c7
:102d7000c40037006420e100c60032000801be0034
:102d80000200be00f7ff37006120e100c100320001
:102d90006000b800f3ff37000000200001f82700b2
:102da000f0ff370003f0a200889fbe008a9fbe009c
:102db0008c1f7800a2000700a90033006450e100d6
:102dc0004f0032006420e1005200320003826c00a8
:102dd00007003b000905d0000306d000820f540015
:102de0000c065d0002003900020032008901780003
:102df000030678008582550004003d000003fd00b5
:102e00008103fd008502ea008b854200840f720079
:102e100002003b0060001000e08018006011b80064
:102e20000005eb007a28e1000a003900060078006e
:102e3000c75ddd00f707b200878075002d00370001
:102e4000828171000a017800610560008180d100f3
:102e50000080d3008502e900f9ff3b000604400032
:102e60008784480002003b0060041400e0841c00da
:102e70000988a300070032008a81710082817100f5
:102e8000610164008904d1000884d3008b05e80047
:102e9000170037000978a30013003a000b00e00088
:102ea000130034008b05e9000804440089844c00b9
:102eb0000a4474000978a3000d003a000b00e000fa
:102ec000070034008b05e9000804440089844c00a5
:102ed00001003a000b0020000978a300f7ff320040
:102ee0000001eb0002003700828171000a017800c6
:102ef0006b0007000cf0a70001f0a0006100370094
:102f00006420e10002003a00838f6c00610033000e
:102f10000801be000200be005a0037000001be00da
:102f2000850007000470a70003f0a1006509b10047
:102f3000160032000d0035006828e100060035005b
:102f4000f0ff2f00f1ff27000300e00013003b001b
:102f500001002800000005000000400081804800ba
:102f60008502e900fcff3a0008003700f88f4200b4
:102f700002003c008000eb00000005008100d10051
:102f80000080d3008502e800fcff3a000300e00067
:102f900002003b0060001000e08018000000060006
:102fa0004f89de0082017800780037006011b80098
:102fb000860037000001be005f0007000470a70014
:102fc00003f0a10003f8a30013003a006509b10063
:102fd00010003200090035006928e10002003500c8
:102fe000010028000000050000004000818048002a
:102ff0008502e900fcff3a0000000600f88f42005d
:10300000050035008100d1000080d3008502e80072
:10301000fcff3a00000006008000eb000000050005
:10302000f4ff2f00980037001400200096003700ae
:103030000081eb00af0037000001eb00ad0037006e
:103040000004be003c0007000003be000405be00f3
:103050000200be0038000700844f75000000060023
:103060000200be006450e100050036006420e1006b
:10307000020036000968a30001003a000800be0003
:103080000160a0004f0678004f05be004f04be004f
:1030900000000600f0ff2f00f1ff2700f9ff3700c6
:1030a00081002000618055000b003d000b002000d6
:1030b00061fe2f000100e1001d00340082817100db
:1030c000610164008904d1000884d3000000e80095
:1030d000faff3a00710020006100640003007000f4
:1030e000020060000900320061044400e0844c00ea
:1030f0000988a500050032008b05e8006808e1009a
:1031000002003a008904d1000884d300f20f2000a5
:103110000258e10005003d00c75ddd00f907b2007f
:103120008980750008007800000006000bf8270071
:103130008b00780000000500c70ade00f107b2002e
:10314000f50fb20008003200e1cf42000200320069
:103150000170a00024000500810f70000100320002
:103160000408050044000500810f700002003a00c9
:10317000140005008502e9000000400081c04800fd
:10318000fcff3b000170a00024000500881f7800b0
:10319000030478000300e00007003d006000100019
:1031a000e080180060011900e081190002003b0076
:1031b00001f02d00030037000400070008f0a7000d
:1031c00001f0a0004f04780000000600889fbe00b8
:1031d0008a9fbe00008270000402710004827100a8
:1031e000260032000004be000200be006011b800dc
:1031f0006b092000950220000182cf000a003900ef
:103200000541b1000082cf00070039000541b1003f
:103210000982cf00040039000541b1000882cf00c7
:10322000010039000541b100054252001200320090
:103230000a003b0082817100610164008100d100bd
:103240000080d3008984d3000884d3008b05e80074
:103250000442e800f7ff3a00070037000804440082
:1032600089844c0000004800818048008b05e900fb
:103270000442e900f9ff3a0089ff07004f05be004c
:103280004f04be0000000600889fbe008a9fbe005b
:10329000841f78006aff07004f0078001100330098
:1032a000f0ff2f00838f6c0006003b0004056500d3
:1032b0000a00a7000800370009f0a600100020004f
:1032c00008003700820f5400838f5c000300390030
:1032d0001000200001003e000000200009f0a700bf
:1032e0000000ea004f05be004f04be000000e000f1
:1032f00000000600889fbe008a9fbe008c9fbe0013
:10330000820578000004be008bff07000800be00a5
:103310006420e1000700390002003a00f1ff2700b5
:10332000f0ff2f000160a00012022000c2428800be
:10333000550037006120e10003003a000b00a700b0
:1033400001f823005000370001f0a1000200210025
:103350009364240034ff07000800be000400350019
:10336000b2fd2000930c24004b0007000004be00b7
:103370000005eb000b00a6004f0dde0001f0a100e0
:103380000004be0032982f0023ea23000ffe07003e
:103390000001eb0003f023000b00a70003f823005b
:1033a00081fe0700ddfe07000000a7000a00a20062
:1033b000fbfe07000b00e0000300320002002000cb
:1033c00003f0230077fe070001f0a2000006be0014
:1033d0000200200093042400fcfd07000801be0049
:1033e00071fe0700809fbe000c00be0022a22a00d2
:1033f000d3a72300f5fd07004f01be006afe0700ba
:103400000004be0001f0a100020020000398230088
:1034100005ff07000800be00190035000001be00ce
:10342000eafd07000006be00b2c52900e3622300e2
:10343000e6fd070022222b00f3942b005afe070022
:103440000c01be00e1fd0700e273280083c02300e9
:1034500055fe07000c01be00dcfd070042aa2a0051
:10346000a3e22b0050fe07000c01be00d7fd0700b1
:103470000801be00d5fd07000801be004afe070096
:103480000a00a70001f0a2004f06be004f05be00d3
:103490004f04be00000006000400200000003700ba
:1034a000889fbe008a9fbe008c1f78004f26dd00db
:1034b000e3fe0700eafe33006120e1004300320032
:1034c0006250e10041003e003e0039006420e1000e
:1034d0003c003200058255000f003b000402e8006a
:1034e00038003a00800f5300818f5b0035003400b4
:1034f0000800be0003f0a10001f0a60003f0a00048
:103500000cf0a70028fe0700defe3700060343008c
:1035100087834b000c4646000005530081855b0005
:10352000020033000a03be000c00a0000402e90000
:10353000f6ff3b00850578000602430087824b00ba
:1035400004003a006000b80009f0a70001f0a000f4
:10355000ccfe37000002520081825a000704e000ce
:10356000040033000603430087834b008b05e9000a
:10357000faff3700090578000604be000203be000a
:103580006011b800c6fe0700e00f5200e08f5a003d
:103590000700350002003c000c08a30004003200c4
:1035a0000601be0003f0a0000cf0a700fefd07001e
:1035b0000a85680001f0a1000af0a70001f0a00050
:1035c000b0fe37000800be00aefe3700100220003b
:1035d0000cf0a600c0428800aefe370081037800e0
:1035e000d5fe07000001be006000b8000478a3000b
:1035f00013003a006220e10015003e000d00390082
:103600008301d1000281d3008180d3008301d100e6
:103610000281d3008180d3008301d1000281d300d5
:103620008180d3000538b000c42add00f300b20069
:103630008381720007f0a70003f0a00000000600dd
:10364000f3ff2700f2ff2f006110b900fbff3700e6
:1036500003ff2700f7ff37008f1fd100af010700de
:103660008f87e9000000e00000000600839f6800eb
:103670000100e00002003d0060001000e080180042
:103680000300e00002003d0060011100e08119002c
:10369000980007004f00e00002003b0060001000af
:1036a000e0801800000006002800fa00889fbe0095
:1036b0008a9fbe008c9fbe0003866b00c00107007e
:1036c0006400e100440032006408e1004a00320076
:1036d0006100e100460032006108e100490032006b
:1036e000ec0647006000b8003d02be003d03be008e
:1036f000f48657006011b8003d04be003d05be00d1
:103700007d0320000b0037000000a0008d06e900bb
:10371000130032000402420085824a0006034b0077
:1037200087834b000000400081804800020149006f
:10373000838149000802520089825a000a035b0013
:103740008b835b00f0ff3b000802420089824a0045
:103750000a034b008b834b008d06e900edff3a0016
:103760008482720086827200f707b200878272003c
:1037700001003200150020001e0490003e0b900056
:1037800006035400e63fb0000368a30007003200c0
:103790000000a7000500a0008301d1000281d30032
:1037a0008180d3000080d3000603e8008301d100ac
:1037b0000281d3008180d3000080d3000002eb009f
:1037c0000482d2009701070003f0a1000cf0a700cb
:1037d00003f0a0008e013700640247006408e10096
:1037e000880132003400be003401be00f6ff37000d
:1037f0006108e100830132006011b8006000b80088
:10380000f1ff370003ff270002002000fbff370015
:103810001400fa00889fbe008a9fbe008c9fbe00e5
:103820000004be000205be00680047000a90be000a
:103830000890be00a70107000070a7000bf0a100d0
:10384000304320009e02900080825200b0fe2f0084
:103850000028e10011003d00b0fc2f000028e1002d
:10386000150034001e0990008e0890007e00900024
:103870000501b0000201d1008180d3000080d30097
:103880008502e800fbff3a000b00e00060013b000e
:1038900060001000e08018005d013700f0ff2f008d
:1038a000f1ff27000b00e00059013b000100280058
:1038b00000002000560137006000b80054013700b6
:1038c0004f89de0082017800a901370007f0a200cd
:1038d0007d023700809feb00100107008f87e90011
:1038e0000000e00000000600020007000400be0027
:1038f000000006006022b800060220000000d00090
:103900008180d2000482d2008582d2000000a00013
:103910000202520083825a00030031000202420078
:1039200083824a000000a1000603e900f3ff3a0089
:1039300000000600889fbe008a9fbe00300442003f
:10394000b0844a0030054b0090854b006000b10008
:103950000898be000a90be00c100070002003100b6
:10396000680040001008e8004f05be004f04be008c
:1039700000000600889fbe008a9fbe003004be0083
:103980002005be000418540005985c0006185d0070
:1039900007985d0011002000b10007000100390008
:1039a0008000eb00108810004f05be004f04be00e1
:1039b000000006001200fa00889fbe008a9fbe0029
:1039c0008c9fbe00e0b79f00f1b79f0082bf9f00b1
:1039d00093bf9f000605be000404be000000eb007c
:1039e000d0b79f00c0b79f00b0b79f00a0b79f009f
:1039f00090b79f000006eb005fb19700cfb0970033
:103a0000820141003fb097000200e00004003d0049
:103a1000980007007e805700c6ff070003003700ac
:103a2000940007007e805700d2ff0700dfb69700a2
:103a30000d00e0000c0035006fb29700ffb2970058
:103a40000fbb97009fbb97001000200001002000d3
:103a50006011b800000272008182720002037300dc
:103a600083837300580007000c06e800010420005f
:103a7000810f5600e0ff3a000d00e00004003d0019
:103a80000802be000a03be007e805700a9ff07009f
:103a90005fa897000000e00005003a001fb2970001
:103aa000afb297003fb39700cfb39700460007002f
:103ab0006fb09700ffb097000fb997009fb99700bc
:103ac0004f06be004f05be004f04be000080fa0046
:103ad00000000600881f780018002000881f78006a
:103ae000b4ff07008f87e9004f047800000006004c
:103af000801feb00afff07008f87e9000000060082
:103b0000889fbe008a9fbe003d00070007003d0061
:103b100040000700180020004500070008003d0095
:103b20002b0007000004eb00050037000004eb0049
:103b30003f00070002003d0025000700180020009c
:103b4000e4ff07000800e000010032003d0007002c
:103b50004f05be004f04be0000000600889fbe0057
:103b60008a9fbe008c1f78002500070008003d00da
:103b7000280007001c0020000820e10009a8e1003f
:103b80000ab0e1000bb8e10007003d000500370076
:103b90000006eb002600070003003d006044b8006b
:103ba0006055b8000c000700d1ff07000c00e000d2
:103bb00001003200230007004f0678004f05be00c9
:103bc0004f04be00000006000800070000000600c9
:103bd0006044b8006055b8000402540085825c005f
:103be00006035d0087835d0000000600a4b79f0008
:103bf000b5b79f00c6b79f00d7b79f00000006006b
:103c0000e00f5000e08f5800e00f5900e08f59009e
:103c1000000006006044b8006055b8000000540081
:103c200081805c0002015d0083815d000000060070
:103c3000e00f5200e08f5a00e00f5b00e08f5b0066
:103c4000000006006022b8006033b8000000520097
:103c500081805a0002015b0083815b000000060046
:103c60000440e10005c8e10006d0e10007d8e1000a
:103c7000000006004f09de0082817100b3b79f008b
:103c80004f01de008180400082807000a1b79f005c
:103c90008fb097004f09de00000040000200700066
:103ca00090b79f007fa897004f01de008180400001
:103cb0008280700081b79f000d0007004f3ade0040
:103cc0000000400004007000f0af9f0008000700f3
:103cd0000402420085824a0006034b0087834b00a2
:103ce000c2ff07000802be000a03be000000060073
:103cf0002fb29700bfb297004fb39700dfb3970082
:103d000000000600020ab900001bb9000200b8005a
:103d1000810042008100430000000600889fbe0031
:103d20008a9fbe008c9fbe000404be000605be0034
:103d3000809fbe00829fbe009d00070004067800a1
:103d40000800be000a01be00990007008406780042
:103d50004f03be004f02be008d4f76007fb097002c
:103d600013003300f0ff2f008b8f6b0006003b0029
:103d70000d0666000c00a7000a00370007f0a60039
:103d8000100020000a003700880f5200898f5a0067
:103d90008a0f5b008b8f5b0003003900100020004e
:103da00001003e000000200007f0a7000000ea002c
:103db0004f06be004f05be004f04be0000000600c7
:103dc000680447000294be000094be00fc04470053
:103dd0008694be008494be00090078003d00070070
:103de000080078003b00070099007800814f7000c0
:103df0000b003b000800be007f0007004f00b10031
:103e000003003700f3ff2700f2ff2f006110b90015
:103e10004f06be004f05be004f04be000080fa00f2
:103e2000000006001800200057002000080453007e
:103e30000d003d000600200097fc2f000740e10028
:103e40001e00340084827200610260008301d10090
:103e50000281d3008180d3000080d3000804e800f1
:103e6000f8ff3a0047002000610460000504740078
:103e7000040464000d00320061004000e08048004e
:103e800060014900e081490003b8a5000700320045
:103e90000603e8006538e10004003a008301d10020
:103ea0000281d3008180d3000080d300f87f2000fe
:103eb0000830e10003003500080378006000b80016
:103ec0006011b8004433dd00f300b20083017300d9
:103ed00000000600800078005002be005003be00c3
:103ee0004439de00f700b200f37f200003016100d7
:103ef000090032000218e10016003a008501720044
:103f000083017300838173000008200015003a00cc
:103f10004000200013003700850172008301730008
:103f20008381730005003a0004a8be0006a8be0005
:103f3000100020000b0037000201e90004024200db
:103f400085824a0006034b0087834b000748a30085
:103f5000f9ff32000740a00004a8be0006a8be007a
:103f600020002000800098009200980000000600c9
:103f7000881f7800030478000300e00007003d007c
:103f800060001000e080180060011900e081190055
:103f900002003b0001f02d00030037002400070061
:103fa00008f0a70003f0a0004f047800000006000e
:103fb00005ff270005826100070032000428e100a8
:103fc00001003200240005000600070001003a004d
:103fd000440005000408050002000700f9ff3a004c
:103fe000140005006f82610081027000850271007b
:103ff0008502720000000600e48240001078a300f1
:1040000007003200640240001178a3003400be00b3
:104010001401be00040032000330a70000000600b7
:104020003500be001501be000330a00000000600f0
:10403000889fbe000082700004027100048271003b
:104040002400320036432000c50020008383cf00c7
:104050000a0039000541b1008283cf000700390012
:104060000541b1008183cf00040039000541b10052
:104070008083cf00010039000541b10085c35300a2
:104080006022b800120032000a003b0084827200f5
:10409000610260008301d1000281d3008180d300de
:1040a0000080d3000603e8008743e800f7ff3a00ea
:1040b00007003700000040008180480002014900ed
:1040c000838149000603e9008743e900f9ff3a00cc
:1040d00054ff07004f04be00000006004211880094
:1040e0000011880011118800000006000000000087
:1040f0002800fa00889fbe008a9fbe008c9fbe00e9
:1041000003866b002eff07000028a30064003a001e
:104110000128a30067003a000008a30062003a00eb
:104120000108a30065003a001e009000be08900040
:1041300081064000ed3fb100f4805700ee01900091
:10414000111ab8008e099000311bb8009e0990002a
:10415000311cb800511db800f48557004600070017
:10416000fe0190003a0007008b85e8003e00070042
:104170008e09900040000700ee0190003400070017
:104180008b85e800380007008e099000400007008a
:104190009e0990001b18b800890440000a85480059
:1041a000fe019000340007008b85e800380007000e
:1041b000ee019000300007008e0990001b18b80037
:1041c000890440000a8548000a98a30008003a00c4
:1041d0000402420085824a0006034b0087834b009d
:1041e00008044c0089844c000a054d008d06e90046
:1041f00084827200850273004c3add0085027200f1
:104200000100320015002000443ade001400b20024
:104210004538de00cb45dd000b007000c540de00f8
:10422000cb4ddd008b8070004549de00cb55dd00b5
:104230000b017100c551de000d037800f9fe070087
:1042400003f0a1000cf0a70003f0a000f0fe37007f
:104250001b18b8008502400006834800e0834b002d
:1042600060044c00070037001b18b800060340002c
:1042700087834800faff37001b18b8008703400007
:1042800008844800e0844c0060054d0000000600f2
:104290001b18b8000804400089844800faff370062
:1042a0000108a300d7fe3a005800be005801be0026
:1042b000e3ff37000008a300d2fe3a0009047800ab
:1042c000f9ff3700000000002800fa00889fbe00b8
:1042d0008a9fbe008c9fbe00070678008786690013
:1042e0000c003b00030478008704780008f0a1006c
:1042f00009f0a100840f5000858f5800860f5900e7
:10430000890f5c00030033000cf0a20001003a00aa
:104310000cf0a100aafe07006400e1005f0032007b
:10432000780147006408e100610032006c01470039
:10433000748557003200be001201be003a04be0070
:104340001a05be001e039000be0a900085035300ac
:1043500006003d000004fd008104fd000205fd0093
:104360008305fd008703ea00050378000df8a3002c
:104370000400320060041400e0841c0060051d008d
:10438000e0851d006022b8007d0320000d38e100ab
:104390008006eb000b0039004433dd00f300b2006f
:1043a0008301730039003700848272000d027800a7
:1043b000e10664008b85d1000a85d3008984d3008f
:1043c0000884d3008703e900f7ff3b0008004000a2
:1043d000898048000a0149008b81490004003b00a4
:1043e00060001000e080180060011900e0811900f1
:1043f0000358a300090032008d827200848272008b
:10440000610260008301d1000281d3008180d3006a
:104410000080d3000603e8001b0037000348a30018
:1044200017003a000600e000170034000603e90018
:104430000d00a300000048008180480002014900ef
:10444000838149000348a3000f003a000600e00002
:10445000090034000603e9000000400081804800a4
:10446000020149008381490001003a000003eb008a
:104470000348a300f5ff32006022b80002003700b5
:10448000848272006182660066fe070003f0a1006c
:104490000cf0a70003f0a0005dfe370064014700a8
:1044a0006408e10002003a000df8a30055fe3a004e
:1044b0003200be001201be0055fe370000000000b1
:020000040000fa
:1044c0004c61000062300000363a000020410000dc
:1044d0006d6100007a6900006e67000020420000f4
:1044e000616c00006c000000477200006f750000f6
:1044f000703a000020470000726f000075700000e5
:104500004e6100006d650000005800002d61000044
:1045100078690000733a0000202500006400000064
:10452000592d000061780000697300003a200000f6
:1045300025640000005800002d7400006172000026
:1045400067650000743a0000202500006600000046
:10455000592d00007461000072670000657400004e
:104560003a200000256600000025000034640000a9
:10457000206400005f6d0000697300007365000037
:0c45800073210000212100000000000059
:020000040000fa
:10458c000000fa00d2e2a900d2c2a900710d80008d
:10459c0080ff2f0000806000700d880040e7200035
:1045ac00600d880040e72000500d8800ae61a90026
:1045bc00710d800080ff2f00008060006000b30050
:1045cc00700d8800410d800080ff2f00008060007e
:1045dc00400d880040e72000300d880040e72000a7
:1045ec00200d8800a861a900410d800080ff2f00dc
:1045fc00008060006000b300400d880011e1a9004c
:10460c001021a90010c1a90081088000f0fc2f0026
:10461c00008060000050a000800888000621ef0098
:10462c0000fa20006008880031058000f0ff2800a7
:10463c000080600000c0a0003005880084e0a90064
:10464c0094e0a90011e1a80000002a0061182000e4
:10465c0088ef07000080fa00000006000800fa004e
:10466c0010079800220798003307980002002000da
:10467c00a35724002e009000be00900050f90700b4
:10468c0002002000031a240081f907000001be007b
:10469c0000002000a1572400bff907001cfa0700f6
:1046ac00000f78001e0090000000e00003003a00ac
:1046bc001e007800500d8800020037001e007800a4
:1046cc00200d88000080fa00000006000000fa00af
:1046dc00d822a900d842a900d862a9000080fa000b
:1046ec00000006000000fa0005e1a9000421a90061
:1046fc0004c1a90021088000000320000100700003
:10470c0020088800401f2000100888000021ef00be
:10471c0021058000f0ff28000080600000c0a00090
:10472c00200588008460a9009460a80005e1a80019
:10473c000080fa00000006000000fa00da22a8004f
:10474c00da42a800da62a9000080fa000000060034
:10475c000200fa00000f78001e0078000000e00054
:10476c000f003a004119800000fe2f00008060000d
:10477c00f000b300401988002023a80000000000be
:10478c0000198000610060000000e000fcff3200b6
:10479c002023a9002003a900001880000e00370078
:1047ac004119800000fe2f00008060009000b300d3
:1047bc00401988002023a800000000000019800088
:1047cc00610060000000e000fcff32002023a90023
:1047dc002003a900001880000080fa0000000600e9
:1047ec000200fa00000f78001e0078000000e000c4
:1047fc0016003a004119800000fe2f000080600076
:10480c00f000b30040198800da22a9000000000073
:10481c00da42a80000000000da62a80000402f0075
:10482c001100200013ef07002023a8000000000057
:10483c0000198000610060000000e000fcff320005
:10484c002003a900001880001500370041198000d2
:10485c0000fe2f00008060009000b300401988001b
:10486c00da22a80000000000da42a90000000000d3
:10487c00da62a90000402f0011002000fdee0700b5
:10488c002023a800000000000019800061006000d7
:10489c000000e000fcff32002003a900001880009b
:1048ac000080fa00000006000000fa00d822a900df
:1048bc00d842a900d862a90021e3a900c7e2a80048
:1048cc0000000000c722a800000000002de3a80093
:1048dc00000000002d23a8002143a900011980002d
:1048ec00f0cf2f00008060000019880001198000b3
:1048fc00000e200001007000001988002223ef0038
:10490c0025e3a9002119800000f0210001007000ae
:10491c002019880020c0b30024e3b70021e3a800cd
:10492c000080fa00000006000800fa00889fbe0014
:10493c00200798003107980090418000a141800029
:10494c002e019000be01900013f90700c0408800b2
:10495c00d1408800c4408000d54080008040800059
:10496c00914080000001be000400be000af907005f
:10497c00004188001141880034428000454280008b
:10498c00c0408000d14080000001be000400be0089
:10499c008bf807000004be00544280006542800082
:1049ac0000418000114180000001be000400be00e7
:1049bc0083f807000001be000800be00f7f80700ee
:1049cc0040418800514188004241800053418000a1
:1049dc00028fbe00c0408000d14080008040880023
:1049ec00914088001e00be004f04be000080fa00fb
:1049fc00000006000800fa00889fbe0020079800ff
:104a0c0031079800b0418000c14180002e01900018
:104a1c00be019000e0f80700e0408800f1408800fb
:104a2c00e4408000f5408000a0408000b140800050
:104a3c000001be000400be00d7f80700204188002a
:104a4c00314188007442800085428000e040800043
:104a5c00f14080000001be000400be0058f80700c1
:104a6c000004be0094428000a542800020418000da
:104a7c00314180000001be000400be0050f8070068
:104a8c000001be000800be00c4f8070060418800a9
:104a9c0071418800e0408000f1408000a040880017
:104aac00b14088006241800073418000028fbe00db
:104abc001e00be004f04be000080fa00000006007d
:104acc001600fa00000f9800120f9800230f9800a0
:104adc001042800000004000cf80de002df907005e
:104aec00325c2f008304240035f807000001be005f
:104afc000000200001f8230065f80700200798004b
:104b0c003107980020428000cf80de0021f9070099
:104b1c000001be000000200001f823005cf8070033
:104b2c0040079800510798004e019000de0190005c
:104b3c002e009000be00900098f807000001be0007
:104b4c004e009000de00900051f8070060079800be
:104b5c00710798000e0890000000e00014003a0065
:104b6c0040408000514080000001be001e089000b3
:104b7c00ae08900088f807006e019000fe019000ce
:104b8c000ff807000002be0040408000514080003a
:104b9c000001be000400be0080f80700008fbe00bc
:104bac001e01be00424088005340880013003700ad
:104bbc0060408000714080000001be001e08900023
:104bcc00ae08900074f807006e019000fe01900092
:104bdc00fbf707000002be006040800071408000bf
:104bec000001be000400be006cf80700008fbe0080
:104bfc001e01be0062408800734088001e00be008b
:104c0c000080fa00000006000800fa00881f7800f7
:104c1c00200798003107980062ba290043b423009a
:104c2c002e009000be009000e5f707000200200067
:104c3c0003fc230059f80700008fbe0018c0b30016
:104c4c0062662600630024001e00be00f1f8070017
:104c5c000000e00001003d000044eb000804e0000f
:104c6c00040032006066260061002400008fbe0044
:104c7c000d00370018c0b3006266260063f62300ef
:104c8c001e00be00e5f807000000e0000100340043
:104c9c000044eb000804e0000300320060662600cc
:104cac0061f62300008fbe001e00be004f0478008a
:104cbc000080fa00000006001000fa006000b80046
:104ccc002007980031079800f900070000262a00f9
:104cdc00801f780093ee07008f87e9002088200062
:104cec0098ee070080c1b300190107000040eb00eb
:104cfc00f200070090c1b3001501070080c0b3009b
:104d0c00ee000700ea00070040272a00801f780009
:104d1c0084ee07008f87e9002088200089ee0700c9
:104d2c0080c1b3000a0107000040eb00e30007005c
:104d3c0090c1b3000601070000c1b300df000700fb
:104d4c000ffe07000000210071022000c9ed0700d2
:104d5c005efe070063fe0700d3fe070076fe070029
:104d6c0080c1b300fa0007000040eb00d30007003d
:104d7c0090c1b300f600070000c2b300cf000700db
:104d8c00cb00070000408000801f780050282a00cc
:104d9c00801f780063ee0700e4875700208820000e
:104dac0068ee070080c1b300e90007000040eb008b
:104dbc00c200070090c1b300e500070080c2b30039
:104dcc00be000700ba00070010408000801f78006a
:104ddc0000292a00801f780052ee0700e487570054
:104dec002088200057ee07001e4078000004e000e9
:104dfc0060003a002e009000be00900068f807009a
:104e0c00a299290093e123006df7070085f80700ac
:104e1c0002002000832c240069f707000200200008
:104e2c00833c2400ddf7070090418800a1418800f5
:104e3c002e009000be00900059f80700a29929009e
:104e4c0093e123005ef7070078f8070002002000ca
:104e5c00832c24005af7070002002000f33a2400a8
:104e6c00cef70700b0418800c141880080c1b30073
:104e7c00b70007000040eb009000070090c1b300a2
:104e8c00b300070000c1b3008c00070088000700c6
:104e9c0090418000a1418000809fbe00b0292a0073
:104eac00801f78001fee0700e6875700208820003f
:104ebc0024ee070080c1b300a50007000040eb0002
:104ecc007e00070090c1b300a100070080c1b300b1
:104edc007a00070076000700b0418000c1418000d5
:104eec00809fbe00802a2a00801f78000dee0700ec
:104efc00e68757002088200012ee07002e00900055
:104f0c00be00900061004000e0804800200798003f
:104f1c0031079800004080008000eb0020f807006b
:104f2c0081fe070040079800510798001040800050
:104f3c008000eb001af80700aefe0700600798002f
:104f4c00710798004e009000de0090002eff0700c5
:104f5c000001be000000eb00c0fd07006e009000d9
:104f6c00fe00900028ff07000001be00100020008a
:104f7c00bafd07001e4090000004e00015003a0046
:104f8c0030c8bf000004e0001200320080c1b30042
:104f9c006f0007000040eb004800070090c1b30011
:104fac006b00070000c3b30044000700400007007b
:104fbc0030c8bf000080fb00801f7800502b2a00f7
:104fcc00801f7800d7ed0700e48757002088200069
:104fdc00dced07002e4090000004e00003003a00d6
:104fec003e4090000040e800304798001e80fb00d7
:104ffc008000e80010002800008060000000e00045
:10500c0004003d000000e900e1ff2f00008070006b
:10501c000000e800004f78001e4090000080fb006c
:10502c008000e80040012000000178001100090018
:10503c008200d8008000fd00104798002e409000a0
:10504c000080fb008000e800400620000001780092
:10505c00110009008200d8008000fd002047980054
:10506c000468ef003eff3700620020000140200082
:10507c000000280016fc0700f0f32f002222b600d7
:10508c008560a900f1ff2800400580008080600049
:10509c000000260001007000400588009560a80003
:1050ac000080280031012000f2ec0700000006000f
:1050bc005648e200feff3a0000000600881f780008
:1050cc0000447800faff07002322ab0005003200f1
:1050dc0001202000000000001211800002806000fe
:1050ec00fcff3a000884fb00281188002302ab0067
:1050fc0005003a0001102000000000001211800091
:10510c0002806000fcff32004f04780000000600b3
:10511c00889fbe008a1f78000005780081447800c3
:10512c00e3ff07000904e000060032000a047800df
:10513c0038407800e1ff07000a40540080cf54004b
:10514c00fbff3e004f0578004f04be000000060038
:10515c00881f780000447800d5ff0700c0c7b30053
:10516c00d6ff070008407800d4ff07004f047800f2
:10517c0000000600ceff0700c0c7b300cfff07003a
:10518c000040eb00cdff070000000600881f7800f0
:10519c0000047800c6ff0700c0c7b300c7ff0700b4
:1051ac0010c0b300c5ff070008407800c3ff07001c
:1051bc004f04780000000600881f78000004780077
:1051cc00bbff0700c0c7b300bcff070020c0b30083
:1051dc00baff070008407800b8ff07004f047800ba
:1051ec0000000600889fbe008a9fbe0080047800e5
:1051fc00010578008205780003047800acff0700f5
:10520c00c0c7b300adff070030c0b300abff070051
:10521c0009407800a9ff07000a407800a7ff0700a3
:10522c000b407800a5ff070008407800a3ff07009b
:10523c004f05be004f04be00000006009cff070097
:10524c00c0c7b3009dff070040c0b3009bff070021
:10525c0000000600889fbe008a9fbe008004780074
:10526c0001057800820578000304780090ff0700a0
:10527c00c0c7b30091ff070050c0b3008fff0700f9
:10528c00094078008dff07000a4078008bff07006b
:10529c000b40780089ff07000840780087ff070063
:1052ac004f05be004f04be000000060080ff070043
:1052bc00c0c7b30081ff070060c0b3007fff0700c9
:1052cc0000000600881f78000004780078ff0700b3
:1052dc000800e00001003c0018002000c0c7b3002b
:1052ec0076ff070070c0b30074ff07000800780059
:1052fc00e60f500001003400600020006fff070033
:10530c004f0478000000060069ff0700c0c7b30017
:10531c006aff070080c0b30068ff070000000600aa
:10532c00881f78000004780061ff0700c0c7b30035
:10533c0062ff0700a0c0b30060ff070008407800c0
:10534c005eff07004f04780000000600889fbe0037
:10535c008a9fbe00800478000105780082057800e1
:10536c000304780052ff0700c0c7b30053ff0700c7
:10537c00b0c0b30051ff0700094078004fff070091
:10538c000a4078004dff07000b4078004bff0700e8
:10539c000840780049ff07004f05be004f04be00cf
:1053ac0000000600889fbe008a9fbe008c1f7800fc
:1053bc0080047800010578008205780003067800e7
:1053cc00040478003aff0700c0c7b3003bff070096
:1053dc00c0c0b30039ff07000940780037ff070051
:1053ec000a40780035ff07000b40780033ff0700b8
:1053fc000c40780031ff0700084078002fff0700b1
:10540c004f0678004f05be004f04be00000006009a
:10541c00889fbe008a9fbe0080047800010578003a
:10542c00820578000304780021ff0700c0c7b30091
:10543c0022ff0700d0c0b30020ff0700094078000e
:10544c001eff07000a4078001cff07000b40780085
:10545c001aff0700880478000004eb000a02200001
:10546c003940780015ff07000804e8008a0f540043
:10547c00fbff3a004f05be004f04be0000000600c3
:10548c00889fbe008a9fbe008c1f78008004780025
:10549c000105780082057800030678000404780082
:1054ac0003ff0700c0c7b30004ff0700f0c0b30040
:1054bc0002ff07000940780000ff07000a4078004f
:1054cc00fefe07000b407800fcfe07000c40780045
:1054dc00fafe070008407800f8fe07004f06780037
:1054ec004f05be004f04be0000000600889fbe00a2
:1054fc008a1f78000004be0002057800ecfe07004d
:10550c00c0c7b300edfe070000c1b300ebfe0700ff
:10551c0000082000800f54000300340000c8b300c2
:10552c00e6fe0700070037000800e00003003d001e
:10553c000040eb00e1fe0700020037000840780055
:10554c00defe070000042000808f540002003400af
:10555c00dafe0700070037000900e00003003d00f9
:10556c000040eb00d5fe0700020037000940780030
:10557c00d2fe0700e10f55000300360010c0b30047
:10558c00cefe0700020037000a407800cbfe070071
:10559c004f0578004f04be0000000600889fbe0037
:1055ac008a9fbe008c1f78000004be000205be005e
:1055bc0004467800befe0700c0c7b300bffe07005c
:1055cc0020c1b300bdfe070008407800bbfe0700f9
:1055dc0009407800b9fe07000a407800b7fe0700c2
:1055ec000b407800b5fe07000c407800b3fe0700b6
:1055fc004f0678004f05be004f04be0000000600a9
:10560c00abfe0700c0c7b300acfe070040c1b3003f
:10561c00aafe070000000600a5fe0700c0c7b300e5
:10562c00a6fe070050c1b300a4fe07000000060050
:10563c00889fbe008a9fbe008c9fbe0080047800ad
:10564c0081057800020678000304780004057800d0
:10565c008506780096fe0700c0c7b30097fe0700ca
:10566c0060c1b30095fe07000940780093fe070067
:10567c000b40780091fe07000c4078008ffe07006d
