:020000040000fa
:080000000002040000000000f2
:020000040000fa
:040008002c030000c5
:020000040000fa
:04000c002c030000c1
:020000040000fa
:040010002c030000bd
:020000040000fa
:040014002c030000b9
:020000040000fa
:040018002c030000b5
:020000040000fa
:04001c002c030000b1
:020000040000fa
:040020002c030000ad
:020000040000fa
:040024002c030000a9
:020000040000fa
:040028002c030000a5
:020000040000fa
:04002c002c030000a1
:020000040000fa
:040030002c0300009d
:020000040000fa
:04003400e4020000e2
:020000040000fa
:040038002c03000095
:020000040000fa
:04003c002c03000091
:020000040000fa
:040040002c0300008d
:020000040000fa
:040044002c03000089
:020000040000fa
:040048002c03000085
:020000040000fa
:04004c002c03000081
:020000040000fa
:040050002c0300007d
:020000040000fa
:0400540002030000a3
:020000040000fa
:040058002c03000075
:020000040000fa
:04005c002c03000071
:020000040000fa
:040060002c0300006d
:020000040000fa
:040064002c03000069
:020000040000fa
:040068002c03000065
:020000040000fa
:04006c002c03000061
:020000040000fa
:040070002c0300005d
:020000040000fa
:040074002c03000059
:020000040000fa
:040078002c03000055
:020000040000fa
:04007c002c03000051
:020000040000fa
:040080002c0300004d
:020000040000fa
:040084002c03000049
:020000040000fa
:040088002c03000045
:020000040000fa
:04008c002c03000041
:020000040000fa
:040090002c0300003d
:020000040000fa
:040094002c03000039
:020000040000fa
:040098002c03000035
:020000040000fa
:04009c002c03000031
:020000040000fa
:0400a0002c0300002d
:020000040000fa
:0400a4002c03000029
:020000040000fa
:0400a8002c03000025
:020000040000fa
:0400ac002c03000021
:020000040000fa
:0400b0002c0300001d
:020000040000fa
:0400b4002c03000019
:020000040000fa
:0400b8002c03000015
:020000040000fa
:0400bc002c03000011
:020000040000fa
:0400c0002c0300000d
:020000040000fa
:0400c4002c03000009
:020000040000fa
:0400c8002c03000005
:020000040000fa
:0400cc002c03000001
:020000040000fa
:0400d0002c030000fd
:020000040000fa
:0400d4002c030000f9
:020000040000fa
:0400d8002c030000f5
:020000040000fa
:0400dc002c030000f1
:020000040000fa
:0400e0002c030000ed
:020000040000fa
:0400e4002c030000e9
:020000040000fa
:0400e8002c030000e5
:020000040000fa
:0400ec002c030000e1
:020000040000fa
:0400f0002c030000dd
:020000040000fa
:0400f4002c030000d9
:020000040000fa
:0400f8002c030000d5
:020000040000fa
:0400fc002c030000d1
:020000040000fa
:040100002c030000cc
:020000040000fa
:040104002c030000c8
:020000040000fa
:040108002c030000c4
:020000040000fa
:04010c002c030000c0
:020000040000fa
:040110002c030000bc
:020000040000fa
:040114002c030000b8
:020000040000fa
:040118002c030000b4
:020000040000fa
:04011c002c030000b0
:020000040000fa
:040120002c030000ac
:020000040000fa
:040124002c030000a8
:020000040000fa
:040128002c030000a4
:020000040000fa
:04012c002c030000a0
:020000040000fa
:040130002c0300009c
:020000040000fa
:040134002c03000098
:020000040000fa
:040138002c03000094
:020000040000fa
:04013c002c03000090
:020000040000fa
:040140002c0300008c
:020000040000fa
:040144002c03000088
:020000040000fa
:040208002c030000c3
:020000040000fa
:04020c002c030000bf
:020000040000fa
:040210002c030000bb
:020000040000fa
:040214002c030000b7
:020000040000fa
:040218002c030000b3
:020000040000fa
:04021c002c030000af
:020000040000fa
:040220002c030000ab
:020000040000fa
:040224002c030000a7
:020000040000fa
:040228002c030000a3
:020000040000fa
:04022c002c0300009f
:020000040000fa
:040230002c0300009b
:020000040000fa
:040234002c03000097
:020000040000fa
:040238002c03000093
:020000040000fa
:04023c002c0300008f
:020000040000fa
:040240002c0300008b
:020000040000fa
:040244002c03000087
:020000040000fa
:040248002c03000083
:020000040000fa
:04024c002c0300007f
:020000040000fa
:040250002c0300007b
:020000040000fa
:040254002c03000077
:020000040000fa
:040258002c03000073
:020000040000fa
:04025c002c0300006f
:020000040000fa
:040260002c0300006b
:020000040000fa
:040264002c03000067
:020000040000fa
:040268002c03000063
:020000040000fa
:04026c002c0300005f
:020000040000fa
:040270002c0300005b
:020000040000fa
:040274002c03000057
:020000040000fa
:040278002c03000053
:020000040000fa
:04027c002c0300004f
:020000040000fa
:040280002c0300004b
:020000040000fa
:040284002c03000047
:020000040000fa
:040288002c03000043
:020000040000fa
:04028c002c0300003f
:020000040000fa
:040290002c0300003b
:020000040000fa
:040294002c03000037
:020000040000fa
:040298002c03000033
:020000040000fa
:04029c002c0300002f
:020000040000fa
:0402a0002c0300002b
:020000040000fa
:0402a4002c03000027
:020000040000fa
:0402a8002c03000023
:020000040000fa
:0402ac002c0300001f
:020000040000fa
:0402b0002c0300001b
:020000040000fa
:0402b4002c03000017
:020000040000fa
:0402b8002c03000013
:020000040000fa
:0402bc002c0300000f
:020000040000fa
:0402c0002c0300000b
:020000040000fa
:0402c4002c03000007
:020000040000fa
:0402c8002c03000003
:020000040000fa
:0402cc002c030000ff
:020000040000fa
:0402d0002c030000fb
:020000040000fa
:0402d4002c030000f7
:020000040000fa
:0402d8002c030000f3
:020000040000fa
:0402dc002c030000ef
:020000040000fa
:0402e0002c030000eb
:020000040000fa
:0402e4002c030000e7
:020000040000fa
:0402e8002c030000e3
:020000040000fa
:0402ec002c030000df
:020000040000fa
:0402f0002c030000db
:020000040000fa
:0402f4002c030000d7
:020000040000fa
:0402f8002c030000d3
:020000040000fa
:0402fc002c030000cf
:020000040000fa
:040300002c030000ca
:020000040000fa
:040304002c030000c6
:020000040000fa
:040308002c030000c2
:020000040000fa
:04030c002c030000be
:020000040000fa
:040310002c030000ba
:020000040000fa
:040314002c030000b6
:020000040000fa
:040318002c030000b2
:020000040000fa
:04031c002c030000ae
:020000040000fa
:040320002c030000aa
:020000040000fa
:040324002c030000a6
:020000040000fa
:040328002c030000a2
:020000040000fa
:04032c002c0300009e
:020000040000fa
:040330002c0300009a
:020000040000fa
:040334002c03000096
:020000040000fa
:040338002c03000092
:020000040000fa
:04033c002c0300008e
:020000040000fa
:040340002c0300008a
:020000040000fa
:040344002c03000086
:020000040000fa
:100400002f8b20000eff27000e0188000000000047
:10041000000020000000e000020032000001200087
:10042000200288000e000700200a210001002000a1
:10043000810f700001003200220007000000200040
:100440000000e00002003200000002000000000096
:100450004e110200000000000040da000000fe0023
:100460004440a900c00120000000e0000300320069
:1004700000002000a00188004440a8000000060001
:10048000f03fb1000180b10006003500ee03090025
:1004900000000000403fb1000180b100fbff3d00c3
:1004a0001000b000203fb0000200350000800900bd
:1004b00000000000000006008a1f78008b1f7800f3
:1004c0000000060091018800800478000000eb0025
:1004d0001a003700e284440032a0b4009905ba0043
:1004e000e284440032a0b4009906ba00e2844400d9
:1004f00032a0b4000006eb00476fde00fd07b2003b
:10050000636ce10003003a00ebff07000000eb0022
:100510000a003700606ce10004003a00005deb0067
:100520008b05e900fdff3e00040037006168e10033
:10053000010032000086eb000b00070019c7ba006b
:100540001905ba000e04e00003003a000a00e000ba
:10055000e0ff3a0000000600fe07b2009e0188009e
:100560008a047800f5ff3700395dba008b05e90091
:100570000c003200295dba008b05e900080032004a
:100580000c00e00003003a00e284440032a0b40012
:10059000f5ff370019ddba008b05e900faff3a00d4
:1005a0008904e800e184440032a0b40000000600a1
:1005b0003003040000000000d40904000000000023
:1005c000000004000000000000a0fe003400f8005d
:1005d000881f780008002000a80188004f047800d8
:1005e0000000fa008460a90010c0b30000e8b70062
:1005f00005e1a9000080fa003400f9000080fe0047
:100600000040060000a0fe003400f800881f7800bb
:1006100008002000a80188004f0478008560a90028
:100620002202ab000900320030118000f34f50006d
:1006300003003a0010c0b30002e8b700030037001f
:10064000f14f500001003a000268ef003400f90059
:100650000080fe00004006000040da000000fe00be
:10066000889fbe00000478000100780082047800b2
:100670008801780009017800110020004900070076
:10068000890f5000010032000004eb0008007800e0
:100690004f04be00000006000000fa00e881570089
:1006a0004fb99700c182200000332000910007005d
:1006b0000080fa0000000600889fbe008a1f7800b4
:1006c000000478000800e0000d003a00a887200030
:1006d000700544008004eb00580078000000e00042
:1006e00004003200f4ff07000000e00001003d00bc
:1006f0008084eb008a0f5400f7ff3a002500370092
:1007000000002200180060008004eb00210032008d
:10071000a80490000f0037000901510038409000f4
:100720000000fb00890078007a0307000000e00069
:1007300007003c00280090004004980060049800e6
:10074000500c98001890a0008084eb001100370036
:100750008084440048019000828f5400eeff3900ed
:1007600028009000400498009800780002c0200003
:100770000281600001003a003800900001e8a30007
:10078000020032006004980001003700500c98000d
:100790008004eb00090078004f0578004f04be008c
:1007a00000000600889fbe008a9fbe008c9fbe008e
:1007b0008e1f78000006780001047800020078009f
:1007c000830478000881b900020778000200e00085
:1007d000420032000800e00041003200820578004b
:1007e000c900900069009000808f5000040039001b
:1007f00009007800f10007000000e0002900350042
:1008000000402000190060000a0032000b0178004f
:10081000a10020000c0078002f010700800678005e
:100820000d00e00006003200610516000a85460052
:10083000040037000b0578008006eb00010037004c
:100840000b05780049009000e9009000808050007e
:100850008a8f500002003100010578008006eb000d
:100860000a0178008c007800250107008a85550070
:10087000490090000a004000c00498000d00e0000c
:1008800004003200090078008bff07000000e00040
:1008900004003a000b00e000020032000a064600a5
:1008a000cfff3700008020001900600002003200f6
:1008b0000900780080ff070000c0200019006000d8
:1008c0000200320049009000e00498008b055700b8
:1008d000110009008885d800010037000000eb00f6
:1008e0004f0778004f06be004f05be004f04be0004
:1008f000000006006200fa00889fbe008a1f780090
:1009000000057800810478000204780083007800f4
:1009100080f92f000f004000000107009a979f0008
:10092000a9979f000000eb00b09f9f001885fb0077
:100930008a04fb000a05ea004f55de005002200041
:10094000808f54000d003200e10f55000b003a007b
:100950000a017800880078002f9097009f919700f7
:1009600003000100a0979f000000e0008e0032000d
:100970003f9897000000e800b09f9f000a044400e1
:1009800050022000808f5400040032000900e00073
:10099000e6ff3a003f989700840037000000eb0024
:1009a000909f9f00809f9f00f0979f00e0979f007f
:1009b000d0979f00c0979f0007003700018a200052
:1009c00001005000000040004189200061007800d3
:1009d000df98970001007000d09f9f008804780086
:1009e00009047800384578008a00fb00008a20005e
:1009f000cc0007000000e000f0ff3a00a1c2b30005
:100a0000814f55000e003a00cf8897000180e90021
:100a1000c08f9f0010007800c09f9f000000e00082
:100a200005003d000000ea00c09f9f005f9897000e
:100a30000020a000d09f9f000904e8000f003700ad
:100a4000c09f9f000000eb0005003700f2ff270069
:100a5000820f5000020032006a01b900028040009b
:100a60000904780088047800b900fb000103b10094
:100a7000e98f5000f5ff3600c09f9f00e0c2b30031
:100a8000984f1000020032000080eb001900370080
:100a9000a0c2b300d84f100007003a00cf889700db
:100aa0000180e900c08f9f0010007800a09f9f0088
:100ab0000804e800100037000000eb00a09f9f0032
:100ac0008800780005003700f3ff2700830f5000ef
:100ad000020032006a02b9000400410001047800fb
:100ae000880078003101fb000203b100e90f5100da
:100af000f5ff3600a09f9f00984478008900fb0016
:100b0000c0882000870007000000e00002003200db
:100b10000804e800010037008044eb00c97f9f0013
:100b200080c6b30080cf540004003a0098cf140070
:100b30000a003a006640500006003700c0c6b30005
:100b400080cf540005003a0098cf140003003a000b
:100b500065404000c07f9f000804e8001801fb00ca
:100b6000e3fb2f008f81410081f92f008f8040002f
:100b7000a0f92f000f004000760007000000e00001
:100b800009003a00e1fb2f008f804000a0f92f0000
:100b90000f0040009e0007000000e000020035004a
:100ba0000804e80061ff37000080eb004f05780083
:100bb0004f04be000080fa0000000600889fbe00bf
:100bc0008a1f780000047800c80090006801900037
:100bd0000000eb00828f50003c00390018007800c4
:100be0002200290002016000e20f510007003200dc
:100bf000012024000000e00001003d000120200051
:100c0000008c70000080eb003000370002002600ee
:100c100002006000820f500009003a003800900086
:100c2000808f50000600390008007800a2fe0700ff
:100c3000800078000080eb000100e00023003a0013
:100c40001805780000c020000000650018003a0078
:100c5000a80490006002200008004000808f54002b
:100c600013003a00002020005801070020049800db
:100c70000000e00005003a002904980049049800ab
:100c80008904e80039049800080037000a60a000d1
:100c90000a0c780040049800012020008080400069
:100ca00031049800400c9800500c98007301070024
:100cb00028009000500498003800900060049800cc
:100cc00000002600180c70000000eb004f057800b3
:100cd0004f04be000000060003003700b0cf100034
:100ce000050032000201e900800178000200e00006
:100cf000faff3a000000050003007800000006003b
:100d00008001780002003700b15978000201e90043
:100d10000200e000fcff3a00000006000108780035
:100d200000000600020037000304e0000600320065
:100d30000001780002007800b041780081cf5100b6
:100d4000f9ff3a00010037000001eb0002007800d3
:100d500000000600889fbe008a1f7800000478000b
:100d600030c5b300804f51000800320030c7b300d7
:100d7000804f51000500320051c2b300780090004e
:100d8000814f510017003a00140037001180e9002c
:100d900080087800100578006a049800d80c90004c
:100da0000900e00004003d000a0078008901070006
:100db0008004780007003700090178008000eb000c
:100dc0000a007800c4ff07000000e00001003200c4
:100dd0008a045000190c98000900370082717800cd
:100de00005003700808141000204e00001003a0064
:100df00001417800824978000000e8007004980002
:100e00000000eb004f0578004f04be000000060014
:100e10000400fa00889fbe008a9fbe008c1f7800e5
:100e20000004780001067800f80d9000780090002a
:100e300080855500080890008085550018089000ae
:100e4000808555002808900080855500380890005e
:100e500080855500480890008085550000022200da
:100e600090bf9f0000032300a0bf9f0008109000c8
:100e70000028a30015003a000b00e0001300340026
:100e80000b0578008a047800e20f55000100360057
:100e900029002000c801900009017800ee80570069
:100ea0005800900003000100500498000000e0008a
:100eb0008c0032006808900009004000600c980027
:100ec000090555004240a900eeff3c007801900062
:100ed0000200e0000c003400c80190008c00780093
:100ee0005800900003000100500498008080eb003f
:100ef0000000e0007c003200e808900078009000dc
:100f000000804000600c9800880c90000900e00010
:100f10001100340009057800e28f5400010036000a
:100f20002a002000c80190000a017800ec805700d8
:100f30005800900003000100500498000000e000f9
:100f400068003200680890000a004000600c9800b9
:100f50008a845400edff3700180990000200e00079
:100f60000c003400c8019000e80090005800900088
:100f700003000100500498008080eb000000e000b6
:100f800059003200e80890001808900000804000e6
:100f9000600c9800a80c90000900e00011003400db
:100fa00009057800e28f5400010036002a00200075
:100fb000c80190000a017800ec80570058009000aa
:100fc00003000100500498000000e00045003200da
:100fd000680890000a004000600c98008a84540061
:100fe000edff3700380990000200e0000e003400e9
:100ff000e80090001808900080804000c801900030
:101000005800900003000100500498008080eb001d
:101010000000e00034003200e8089000380890003a
:1010200000804000600c9800c80c90000900e000af
:101030001100340009057800e28f540001003600e9
:101040002a002000c80190000a017800ec805700b7
:101050005800900003000100500498000000e000d8
:1010600020003200680890000a004000600c9800e0
:101070008a845400edff3700081090008000eb00d8
:101080000028a300180032000b00e0001600340016
:101090008b04780009057800e28f540001003600c7
:1010a0002a002000c80190000a017800ee80570055
:1010b0005800900003000100500498000000e00078
:1010c00008003200680890000a004000600c980098
:1010d0008a8454004240a900eeff3c008000eb00ef
:1010e000010037008080eb00010078004f06780097
:1010f0004f05be004f04be000080fa00000006004d
:10110000889fbe0000047800314580000100e000a7
:1011100002003200010078000d00370041458000d8
:10112000808a200004003700910f5400250036000b
:101130000180e800910090000100e000faff3a0011
:1011400010003700920f54001e0036000280e800a5
:10115000100178000200e000faff3a001101780067
:1011600041458000808a200004003700910f540020
:10117000140036000180e80091009000828f50003a
:10118000faff3a0059458000888f54000100310071
:101190008804780009007800940007000000e0004f
:1011a00004003a00888f5400050032008904d10001
:1011b000f5ff37000918780096000700d2ff3700c6
:1011c0000000eb004f04be0000000600881f7800fe
:1011d000630440000800a1008000eb00800f540071
:1011e00021003600e30f540001003e0048002000bb
:1011f00008007800c2ff07008000eb000000e0005c
:10120000190032009000780091017800648151004b
:10121000880f51000300310011019000020878008e
:101220000700370008814000020878009101900013
:101230001301980010017800110914008808780043
:10124000100178000000eb000200e0000400320012
:10125000920190000300e000010032000280e800eb
:10126000304588008180e800010078004f04780054
:1012700000000600409d200098003700881f78007d
:10128000c88a20001804e00003003a00f9ff0700b4
:1012900020c0b300004c78004f0478000000060026
:1012a000889fbe00000478000800780002fd070057
:1012b0008004780000042000180060000200320062
:1012c00028009000530007000000eb002004980065
:1012d000384090000004e000050035000000fb00ed
:1012e000d00007000000e000010032008084eb0025
:1012f000181090000000e00008003200d400070041
:101300000000e000010032008084eb001810900023
:10131000400007000000eb001014980000082000b7
:10132000180060000f003200a18720000000eb00d1
:10133000d10f140005003a0000004000c1872000d2
:10134000008040000008eb00030037000000e800c8
:10135000e80f5000f6ff3a00080078002d00070063
:101360000e003700000c780000c0eb0030449800fd
:10137000600220000800400020049800400498000b
:1013800050049800400c980060049800500c98009d
:101390007004980076004400000c98000900780062
:1013a0004f04be0000000600889fbe00c8882000d1
:1013b000f0045400480078000000e0000100320012
:1013c000b7ff0700890f5400faff3a004f04be0030
:1013d0000000060080007800010178003104e00080
:1013e000fdff3a0000005100000006008000780078
:1013f0000000eb000100e00005003400010078006f
:101400009c000700e10f400001003a000000eb00e3
:10141000000006000000e0002f003200c00178004c
:10142000e38f51002c0036000308a3002a003a0085
:10143000414580000100e00002003200810f5000b1
:101440000400310011009800404588001600370064
:1014500082007800110190000200e00002003200da
:10146000800f5100faff3900110278008482400099
:10147000850f500018003900808f520003003a0099
:101480008308420001007800070037000200e000f6
:101490000300320083014000830f51000e00390029
:1014a0001200980090009800900090000100e00069
:1014b0000900320010014000828f500006003a00ff
:1014c000628a20000009eb00100178001108410039
:1014d000910090001100980000000600010020001b
:1014e0000100e00008003200010080000100e0007f
:1014f000050032008100e900010088008180400081
:101500000200800000b178000000060000c0da0090
:10151000000006000a00fa00e20f500034003e000e
:1015200070458000e10f500003003200e20f5000d0
:1015300011003a000c003700032220000300e000f5
:1015400001003a000040da002002e200020035000b
:101550002822ef0021e2a8002342ab000d003a0050
:101560002342a8000b003700032320000300e00003
:1015700001003a000040da003002e20002003500cb
:101580003822ef0031e2a8003342ab0001003a00fc
:101590003342a800820178000b0037003102fb00c3
:1015a000e10f500004003a002322ab00feff3a0096
:1015b00024118800030037003322ab00feff3a00fd
:1015c000a41188008301e9000300e000f3ff3a0062
:1015d000e10f500003003a002302ab00feff32008f
:1015e0000b0037003302ab00feff3200080037006b
:1015f00033002000b3bf9f00c0bf9f00d1bf9f003a
:10160000e2bf9f006a805700c0ff07006fb99700d4
:10161000020078000080fa000000060000c0da0036
:10162000000006000a00fa0011002000b1bf9f0070
:10163000c0bf9f006a805700f8ff07004fb89700af
:101640000080fa000000060000c0da00000006007a
:101650000a00fa0051002000b1bf9f00c0bf9f00e8
:101660006a805700f8ff07005fb897000080fa0013
:1016700000000600889fbe0080047800804580003e
:101680000000e00004003a000e0007000084eb00b8
:101690000000e00008003500884580000900e000f7
:1016a0000500320009004400060007000000e000c9
:1016b00001003d000084eb00080078004f04be00ec
:1016c00000000600800078000100e00003003a00fe
:1016d0000000200080458800000005000080eb002d
:1016e00002002000828f500002003e0081458800e9
:1016f0000000eb00000006006022b8000602200097
:101700000000d0008180d2000482d2008582d20005
:101710000000a0000202520083825a000300310040
:101720000202420083824a000000a1000603e90091
:10173000f3ff3a0000000600421188000011880003
:081740001111880000000600f1
:020000040000fa
:101748004c61000062300000333a00002044000081
:101758004143000000470000726f000075700000f0
:101768003a200000477200006f750000704e0000bc
:08177800616d00006500000036
:020000040000fa
:10178000620020000140200000002800eaff07005e
:10179000f0f32f002222b6008560a900f1ff280097
:1017a000400580008080600000002600010070007d
:1017b000400588009560a8000080280031012000c5
:1017c0002ffb0700000006000248e200feff3a007f
:1017d00000000600881f780000447800faff070028
:1017e0002322ab0005003200012020000000000091
:1017f0001211800002806000fcff3a000884fb00a8
:10180000281188002302ab0005003a0001102000d7
:10181000000000001211800002806000fcff320016
:101820004f04780000000600889fbe008a1f7800e1
:101830000005780081447800e3ff07000904e00018
:10184000060032000a04780038407800e1ff070003
:101850000a40540080cf5400fbff3e004f05780043
:101860004f04be0000000600881f78000044780086
:10187000d5ff0700c0c7b300d6ff070008407800b7
:10188000d4ff07004f04780000000600ceff0700d9
:10189000c0c7b300cfff07000040eb00cdff07003b
:1018a00000000600881f780000047800c6ff0700cb
:1018b000c0c7b300c7ff070010c0b300c5ff0700d3
:1018c00008407800c3ff07004f04780000000600be
:1018d000881f780000047800bbff0700c0c7b30072
:1018e000bcff070020c0b300baff07000840780023
:1018f000b8ff07004f04780000000600889fbe0074
:101900008a9fbe0080047800010578008205780077
:1019100003047800acff0700c0c7b300adff0700a9
:1019200030c0b300abff070009407800a9ff0700f3
:101930000a407800a7ff07000b407800a5ff0700ca
:1019400008407800a3ff07004f05be004f04be000b
:10195000000006009cff0700c0c7b3009dff070002
:1019600040c0b3009bff070000000600889fbe0038
:101970008a9fbe0080047800010578008205780007
:101980000304780090ff0700c0c7b30091ff070071
:1019900050c0b3008fff0700094078008dff07009b
:1019a0000a4078008bff07000b40780089ff070092
:1019b0000840780087ff07004f05be004f04be00b7
:1019c0000000060080ff0700c0c7b30081ff0700ca
:1019d00060c0b3007fff070000000600881f78008a
:1019e0000004780078ff07000800e00001003c00d8
:1019f00018002000c0c7b30076ff070070c0b30016
:101a000074ff070008007800e60f50000100340062
:101a1000600020006fff07004f0478000000060000
:101a200069ff0700c0c7b3006aff070080c0b300aa
:101a300068ff070000000600881f78000004780097
:101a400061ff0700c0c7b30062ff0700a0c0b3007a
:101a500060ff0700084078005eff07004f04780031
:101a600000000600889fbe008a9fbe0080047800a8
:101a700001057800820578000304780052ff070012
:101a8000c0c7b30053ff0700b0c0b30051ff070049
:101a9000094078004fff07000a4078004dff07001b
:101aa0000b4078004bff07000840780049ff070013
:101ab0004f05be004f04be0000000600889fbe0018
:101ac0008a9fbe008c1f7800800478000105780092
:101ad0008205780003067800040478003aff0700c6
:101ae000c0c7b3003bff0700c0c0b30039ff070009
:101af0000940780037ff07000a40780035ff0700eb
:101b00000b40780033ff07000c40780031ff0700de
:101b1000084078002fff07004f0678004f05be00f1
:101b20004f04be0000000600889fbe008a9fbe00d2
:101b300080047800010578008205780003047800ad
:101b400021ff0700c0c7b30022ff0700d0c0b300c9
:101b500020ff0700094078001eff07000a407800b8
:101b60001cff07000b4078001aff0700880478006c
:101b70000004eb000a0220003940780015ff07003e
:101b80000804e8008a0f5400fbff3a004f05be002e
:101b90004f04be0000000600889fbe008a9fbe0062
:101ba0008c1f780080047800010578008205780099
:101bb000030678000404780003ff0700c0c7b300e1
:101bc00004ff0700f0c0b30002ff070009407800df
:101bd00000ff07000a407800fefe07000b40780077
:101be000fcfe07000c407800fafe07000840780071
:101bf000f8fe07004f0678004f05be004f04be00f8
:101c000000000600889fbe008a1f78000004be0006
:101c100002057800ecfe0700c0c7b300edfe070028
:101c200000c1b300ebfe070000082000800f540045
:101c30000300340000c8b300e6fe070007003700c9
:101c40000800e00003003d000040eb00e1fe07005b
:101c50000200370008407800defe07000004200084
:101c6000808f540002003400dafe070007003700be
:101c70000900e00003003d000040eb00d5fe070036
:101c80000200370009407800d2fe0700e10f55003e
:101c90000300360010c0b300cefe0700020037007c
:101ca0000a407800cbfe07004f0578004f04be00c5
:101cb00000000600889fbe008a9fbe008c1f78002f
:101cc0000004be000205be0004467800befe070008
:101cd000c0c7b300bffe070020c1b300bdfe0700b0
:101ce00008407800bbfe070009407800b9fe0700f5
:101cf0000a407800b7fe07000b407800b5fe0700e9
:101d00000c407800b3fe07004f0678004f05be0078
:101d10004f04be0000000600abfe0700c0c7b300c2
:101d2000acfe070040c1b300aafe07000000060099
:101d3000a5fe0700c0c7b300a6fe070050c1b30050
:101d4000a4fe070000000600889fbe008a9fbe0018
:101d50008c9fbe0080047800810578000206780020
:101d600003047800040578008506780096fe0700d5
:101d7000c0c7b30097fe070060c1b30095fe07001f
:101d80000940780093fe07000b40780091fe0700a1
:101d90000c4078008ffe0700084078008dfe070099
:101da0000a4078008bfe070008d5b9000a00e00061
:101db00001003d006705450043d5de004240a90013
:101dc000070034008d0478000004eb0039407800ef
:101dd00080fe07000804e800880f5500fbff3c0068
:101de0004f06be004f05be004f04be0000000600b7
:101df000889fbe00800478000104780072fe07000e
:101e0000c0c7b30073fe070080c1b30071fe0700b6
:101e1000094078006ffe0700c0c7b3006dfe0700e1
:101e200090c1b3006bfe07000840780069fe070010
:101e30004f04be0000000600e80f500006003c0002
:101e40000000e000040034000000e900c300dd00f1
:101e500010002000e6ff0700000006000000fa0066
:101e60002d63a8002d43a8002da3a8006d63a80032
:101e70006d43a8006da3a800d302a900c762a90002
:101e8000c742a900c7a2a900d502a800000000000f
:101e9000c962a90000000000c942a90000000000ba
:101ea000c9a2a800000000000080fa00000006009f
:101eb0000600fa0020079800d502a9002e00900025
:101ec00000c0a000100798000040eb00004f780011
:101ed000140037001e80fb006f0010009e00900071
:101ee0000008de0000407800614060006140600052
:101ef000614060000080fb00610060004a00dd007e
:101f00004116800001a0a100010070004016880069
:101f100000000000c962a80000000000c962a9001a
:101f20001e4fe8001e407800ef4f5000e9ff3600da
:101f3000d502a800c9a2a90000000000000000000e
:101f4000c9a2a8000080fa00000006000000fa0004
:101f500042c7bf000014a0000081fb006004200005
:101f600071052000237420008049780081497800a1
:101f70008249780005e1a9002108800000032000c3
:101f800001007000200888000421a80004c1a900f5
:101f90000441a90021058000f0ff280000806000b6
:101fa00000c0a000200588008460a9009460a800fb
:101fb0000080fa00000006000200fa00000f78001e
:101fc0000068ef001e0078006101b8004f18dd00c6
:101fd000c110de00810070004f10dd0002802e0075
:101fe00033002000c4fd07000000780010088800be
:101ff0000021ef0005e1a8000080fa0000000600c3
:102000000600fa00f0fd070040ba2800801f7800a3
:10201000a1f907008f87e900c0822000a6f9070018
:1020200080c1b30010fe07000040eb00e9fd07008f
:1020300090c1b3000cfe070080c0b300e5fd0700af
:10204000e1fd0700f0ba2800801f780092f9070030
:102050008f87e900c082200097f907000040eb005d
:10206000004f7800010037000000000000c8bf00ea
:10207000e14f5000fcff3a000000eb001007980011
:102080000000eb00200798001e80fb00e10f5000cd
:1020900009003200e20f50000c0032000000e000a6
:1020a0000f003a00803e200010079800401f2000db
:1020b000200798000a003700409c20001007980075
:1020c000007d20002007980005003700c0da2000be
:1020d00010079800803e20002007980000000000b4
:1020e0001e80fb008000e800300020000001780026
:1020f000110009008200d8008000fd00004f780028
:102100001e0090006aff07002e009000aaff070043
:10211000101680004400de00614060000004a20050
:10212000614060000080fb00610060004400dd0051
:10213000111680000140a1000100700010168800f7
:04214000caff37009b
:020000040000fa
:10214400000800000200000002000000010000007e
:102154000208000002000000000000000408000063
:10216400880000000200000001000000002a0800ae
:102174002b082a00082a08002a082a00081a08003e
:10218400000000000000000000000000000000004b
:102194000000000000000000000000000002080031
:1021a4000101520008530800520852000852080066
:1021b4005208420008000000000000000000000077
:1021c400000000000000000000000000000000000b
:1021d40000000200080202007a087b00087a080066
:1021e4007a087a00087a08006a08000000000000f3
:1021f40000000000000000000000000000000000db
:10220400000000000000000004082c00085408002e
:1022140000000000000000000000000000000000ba
:102224008c0800001a00000002000000686a6c00bc
:10223400747a4c0000000100000200000400080051
:1022440000100000000020002b2d230030000000af
:10225400aa080000020000000200000004000000c0
:10226400a60800000400000000000000ac08000004
:102274000200000000000000ae08000002000000a0
:102284000200000001000000b0080000020000008d
:08229400000000000000000042
:020000040000fa
:10229c000000fa0037fd07000e0007000040eb00bd
:1022ac006efd070080c1b3006cfd07000040eb0021
:1022bc0045fd070090c1b30068fd07000040eb002e
:1022cc0041fd0700e2fe07001dff070049ff070064
:1022dc00ffff37000000fa00c082a90000000000d8
:1022ec00c0a2a90000000000c122a900000000004b
:1022fc00c142a90000000000c002a90000000000bb
:08230c000080fa000000060049
:020000040000fa
:0200000401f009
:04000c00fbff0000f6
:020000040000fa
:0200000401f009
:04001000f9ff0000f4
:020000040000fa
:0200000401f009
:040014007fff00006a
:00000001FF
